{
  "_format": "hh-sol-artifact-1",
  "contractName": "CapazEscrowFactory",
  "sourceName": "contracts/CapazEscrowFactory.sol",
  "abi": [
    {
      "inputs": [],
      "stateMutability": "nonpayable",
      "type": "constructor"
    },
    {
      "anonymous": false,
      "inputs": [
        {
          "indexed": true,
          "internalType": "address",
          "name": "owner",
          "type": "address"
        },
        {
          "indexed": true,
          "internalType": "address",
          "name": "approved",
          "type": "address"
        },
        {
          "indexed": true,
          "internalType": "uint256",
          "name": "tokenId",
          "type": "uint256"
        }
      ],
      "name": "Approval",
      "type": "event"
    },
    {
      "anonymous": false,
      "inputs": [
        {
          "indexed": true,
          "internalType": "address",
          "name": "owner",
          "type": "address"
        },
        {
          "indexed": true,
          "internalType": "address",
          "name": "operator",
          "type": "address"
        },
        {
          "indexed": false,
          "internalType": "bool",
          "name": "approved",
          "type": "bool"
        }
      ],
      "name": "ApprovalForAll",
      "type": "event"
    },
    {
      "anonymous": false,
      "inputs": [
        {
          "indexed": true,
          "internalType": "address",
          "name": "sender",
          "type": "address"
        },
        {
          "indexed": true,
          "internalType": "address",
          "name": "receiver",
          "type": "address"
        },
        {
          "components": [
            {
              "internalType": "address",
              "name": "sender",
              "type": "address"
            },
            {
              "internalType": "address",
              "name": "receiver",
              "type": "address"
            },
            {
              "internalType": "address",
              "name": "tokenAddress",
              "type": "address"
            },
            {
              "internalType": "uint256",
              "name": "totalAmount",
              "type": "uint256"
            },
            {
              "internalType": "uint256",
              "name": "startTime",
              "type": "uint256"
            },
            {
              "internalType": "uint256",
              "name": "periodDuration",
              "type": "uint256"
            },
            {
              "internalType": "uint256",
              "name": "periods",
              "type": "uint256"
            },
            {
              "internalType": "uint256",
              "name": "yieldStrategyId",
              "type": "uint256"
            },
            {
              "internalType": "address",
              "name": "escrowAddress",
              "type": "address"
            }
          ],
          "indexed": false,
          "internalType": "struct CapazCommon.Escrow",
          "name": "escrow",
          "type": "tuple"
        }
      ],
      "name": "EscrowCreated",
      "type": "event"
    },
    {
      "anonymous": false,
      "inputs": [
        {
          "indexed": true,
          "internalType": "address",
          "name": "previousOwner",
          "type": "address"
        },
        {
          "indexed": true,
          "internalType": "address",
          "name": "newOwner",
          "type": "address"
        }
      ],
      "name": "OwnershipTransferred",
      "type": "event"
    },
    {
      "anonymous": false,
      "inputs": [
        {
          "indexed": true,
          "internalType": "address",
          "name": "sender",
          "type": "address"
        },
        {
          "indexed": true,
          "internalType": "address",
          "name": "receiver",
          "type": "address"
        },
        {
          "indexed": false,
          "internalType": "uint256",
          "name": "tokenId",
          "type": "uint256"
        }
      ],
      "name": "ReceiverUpdated",
      "type": "event"
    },
    {
      "anonymous": false,
      "inputs": [
        {
          "indexed": true,
          "internalType": "address",
          "name": "from",
          "type": "address"
        },
        {
          "indexed": true,
          "internalType": "address",
          "name": "to",
          "type": "address"
        },
        {
          "indexed": true,
          "internalType": "uint256",
          "name": "tokenId",
          "type": "uint256"
        }
      ],
      "name": "Transfer",
      "type": "event"
    },
    {
      "inputs": [
        {
          "internalType": "address",
          "name": "to",
          "type": "address"
        },
        {
          "internalType": "uint256",
          "name": "tokenId",
          "type": "uint256"
        }
      ],
      "name": "approve",
      "outputs": [],
      "stateMutability": "nonpayable",
      "type": "function"
    },
    {
      "inputs": [
        {
          "internalType": "address",
          "name": "owner",
          "type": "address"
        }
      ],
      "name": "balanceOf",
      "outputs": [
        {
          "internalType": "uint256",
          "name": "",
          "type": "uint256"
        }
      ],
      "stateMutability": "view",
      "type": "function"
    },
    {
      "inputs": [
        {
          "internalType": "uint256",
          "name": "",
          "type": "uint256"
        }
      ],
      "name": "escrows",
      "outputs": [
        {
          "internalType": "address",
          "name": "sender",
          "type": "address"
        },
        {
          "internalType": "address",
          "name": "receiver",
          "type": "address"
        },
        {
          "internalType": "address",
          "name": "tokenAddress",
          "type": "address"
        },
        {
          "internalType": "uint256",
          "name": "totalAmount",
          "type": "uint256"
        },
        {
          "internalType": "uint256",
          "name": "startTime",
          "type": "uint256"
        },
        {
          "internalType": "uint256",
          "name": "periodDuration",
          "type": "uint256"
        },
        {
          "internalType": "uint256",
          "name": "periods",
          "type": "uint256"
        },
        {
          "internalType": "uint256",
          "name": "yieldStrategyId",
          "type": "uint256"
        },
        {
          "internalType": "address",
          "name": "escrowAddress",
          "type": "address"
        }
      ],
      "stateMutability": "view",
      "type": "function"
    },
    {
      "inputs": [
        {
          "internalType": "uint256",
          "name": "tokenId",
          "type": "uint256"
        }
      ],
      "name": "getApproved",
      "outputs": [
        {
          "internalType": "address",
          "name": "",
          "type": "address"
        }
      ],
      "stateMutability": "view",
      "type": "function"
    },
    {
      "inputs": [
        {
          "internalType": "uint256",
          "name": "tokenId",
          "type": "uint256"
        }
      ],
      "name": "getEscrow",
      "outputs": [
        {
          "components": [
            {
              "internalType": "address",
              "name": "sender",
              "type": "address"
            },
            {
              "internalType": "address",
              "name": "receiver",
              "type": "address"
            },
            {
              "internalType": "address",
              "name": "tokenAddress",
              "type": "address"
            },
            {
              "internalType": "uint256",
              "name": "totalAmount",
              "type": "uint256"
            },
            {
              "internalType": "uint256",
              "name": "startTime",
              "type": "uint256"
            },
            {
              "internalType": "uint256",
              "name": "periodDuration",
              "type": "uint256"
            },
            {
              "internalType": "uint256",
              "name": "periods",
              "type": "uint256"
            },
            {
              "internalType": "uint256",
              "name": "yieldStrategyId",
              "type": "uint256"
            },
            {
              "internalType": "address",
              "name": "escrowAddress",
              "type": "address"
            }
          ],
          "internalType": "struct CapazCommon.Escrow",
          "name": "",
          "type": "tuple"
        }
      ],
      "stateMutability": "view",
      "type": "function"
    },
    {
      "inputs": [
        {
          "internalType": "uint256",
          "name": "strategyId",
          "type": "uint256"
        }
      ],
      "name": "getStrategy",
      "outputs": [
        {
          "internalType": "address",
          "name": "",
          "type": "address"
        }
      ],
      "stateMutability": "view",
      "type": "function"
    },
    {
      "inputs": [
        {
          "internalType": "address",
          "name": "owner",
          "type": "address"
        },
        {
          "internalType": "address",
          "name": "operator",
          "type": "address"
        }
      ],
      "name": "isApprovedForAll",
      "outputs": [
        {
          "internalType": "bool",
          "name": "",
          "type": "bool"
        }
      ],
      "stateMutability": "view",
      "type": "function"
    },
    {
      "inputs": [
        {
          "components": [
            {
              "internalType": "address",
              "name": "sender",
              "type": "address"
            },
            {
              "internalType": "address",
              "name": "receiver",
              "type": "address"
            },
            {
              "internalType": "address",
              "name": "tokenAddress",
              "type": "address"
            },
            {
              "internalType": "uint256",
              "name": "totalAmount",
              "type": "uint256"
            },
            {
              "internalType": "uint256",
              "name": "startTime",
              "type": "uint256"
            },
            {
              "internalType": "uint256",
              "name": "periodDuration",
              "type": "uint256"
            },
            {
              "internalType": "uint256",
              "name": "periods",
              "type": "uint256"
            },
            {
              "internalType": "uint256",
              "name": "yieldStrategyId",
              "type": "uint256"
            },
            {
              "internalType": "address",
              "name": "escrowAddress",
              "type": "address"
            }
          ],
          "internalType": "struct CapazCommon.Escrow",
          "name": "_escrow",
          "type": "tuple"
        }
      ],
      "name": "mint",
      "outputs": [
        {
          "internalType": "uint256",
          "name": "",
          "type": "uint256"
        }
      ],
      "stateMutability": "nonpayable",
      "type": "function"
    },
    {
      "inputs": [],
      "name": "name",
      "outputs": [
        {
          "internalType": "string",
          "name": "",
          "type": "string"
        }
      ],
      "stateMutability": "view",
      "type": "function"
    },
    {
      "inputs": [],
      "name": "owner",
      "outputs": [
        {
          "internalType": "address",
          "name": "",
          "type": "address"
        }
      ],
      "stateMutability": "view",
      "type": "function"
    },
    {
      "inputs": [
        {
          "internalType": "uint256",
          "name": "tokenId",
          "type": "uint256"
        }
      ],
      "name": "ownerOf",
      "outputs": [
        {
          "internalType": "address",
          "name": "",
          "type": "address"
        }
      ],
      "stateMutability": "view",
      "type": "function"
    },
    {
      "inputs": [],
      "name": "renounceOwnership",
      "outputs": [],
      "stateMutability": "nonpayable",
      "type": "function"
    },
    {
      "inputs": [
        {
          "internalType": "uint256",
          "name": "",
          "type": "uint256"
        },
        {
          "internalType": "uint256",
          "name": "value",
          "type": "uint256"
        }
      ],
      "name": "royaltyInfo",
      "outputs": [
        {
          "internalType": "address",
          "name": "receiver",
          "type": "address"
        },
        {
          "internalType": "uint256",
          "name": "royaltyAmount",
          "type": "uint256"
        }
      ],
      "stateMutability": "view",
      "type": "function"
    },
    {
      "inputs": [
        {
          "internalType": "address",
          "name": "from",
          "type": "address"
        },
        {
          "internalType": "address",
          "name": "to",
          "type": "address"
        },
        {
          "internalType": "uint256",
          "name": "tokenId",
          "type": "uint256"
        }
      ],
      "name": "safeTransferFrom",
      "outputs": [],
      "stateMutability": "nonpayable",
      "type": "function"
    },
    {
      "inputs": [
        {
          "internalType": "address",
          "name": "from",
          "type": "address"
        },
        {
          "internalType": "address",
          "name": "to",
          "type": "address"
        },
        {
          "internalType": "uint256",
          "name": "tokenId",
          "type": "uint256"
        },
        {
          "internalType": "bytes",
          "name": "data",
          "type": "bytes"
        }
      ],
      "name": "safeTransferFrom",
      "outputs": [],
      "stateMutability": "nonpayable",
      "type": "function"
    },
    {
      "inputs": [
        {
          "internalType": "address",
          "name": "operator",
          "type": "address"
        },
        {
          "internalType": "bool",
          "name": "approved",
          "type": "bool"
        }
      ],
      "name": "setApprovalForAll",
      "outputs": [],
      "stateMutability": "nonpayable",
      "type": "function"
    },
    {
      "inputs": [
        {
          "internalType": "address",
          "name": "recipient",
          "type": "address"
        },
        {
          "internalType": "uint256",
          "name": "value",
          "type": "uint256"
        }
      ],
      "name": "setRoyalties",
      "outputs": [],
      "stateMutability": "nonpayable",
      "type": "function"
    },
    {
      "inputs": [
        {
          "internalType": "uint256",
          "name": "strategyId",
          "type": "uint256"
        },
        {
          "internalType": "address",
          "name": "strategyAddress",
          "type": "address"
        }
      ],
      "name": "setStrategy",
      "outputs": [],
      "stateMutability": "nonpayable",
      "type": "function"
    },
    {
      "inputs": [
        {
          "internalType": "uint256",
          "name": "",
          "type": "uint256"
        }
      ],
      "name": "strategies",
      "outputs": [
        {
          "internalType": "address",
          "name": "",
          "type": "address"
        }
      ],
      "stateMutability": "view",
      "type": "function"
    },
    {
      "inputs": [
        {
          "internalType": "bytes4",
          "name": "interfaceId",
          "type": "bytes4"
        }
      ],
      "name": "supportsInterface",
      "outputs": [
        {
          "internalType": "bool",
          "name": "",
          "type": "bool"
        }
      ],
      "stateMutability": "view",
      "type": "function"
    },
    {
      "inputs": [],
      "name": "symbol",
      "outputs": [
        {
          "internalType": "string",
          "name": "",
          "type": "string"
        }
      ],
      "stateMutability": "view",
      "type": "function"
    },
    {
      "inputs": [
        {
          "internalType": "uint256",
          "name": "tokenId",
          "type": "uint256"
        }
      ],
      "name": "tokenURI",
      "outputs": [
        {
          "internalType": "string",
          "name": "",
          "type": "string"
        }
      ],
      "stateMutability": "view",
      "type": "function"
    },
    {
      "inputs": [],
      "name": "totalSupply",
      "outputs": [
        {
          "internalType": "uint256",
          "name": "",
          "type": "uint256"
        }
      ],
      "stateMutability": "view",
      "type": "function"
    },
    {
      "inputs": [
        {
          "internalType": "address",
          "name": "from",
          "type": "address"
        },
        {
          "internalType": "address",
          "name": "to",
          "type": "address"
        },
        {
          "internalType": "uint256",
          "name": "tokenId",
          "type": "uint256"
        }
      ],
      "name": "transferFrom",
      "outputs": [],
      "stateMutability": "nonpayable",
      "type": "function"
    },
    {
      "inputs": [
        {
          "internalType": "address",
          "name": "newOwner",
          "type": "address"
        }
      ],
      "name": "transferOwnership",
      "outputs": [],
      "stateMutability": "nonpayable",
      "type": "function"
    }
  ],
  "bytecode": "0x60806040523480156200001157600080fd5b50604080518082018252601381527f436170617a20457363726f7720546f6b656e730000000000000000000000000060208083019182528351808501909452600384526210d15560ea1b908401528151919291620000729160009162000228565b5080516200008890600190602084019062000228565b505050620000a56200009f620000b860201b60201c565b620000bc565b620000b23360326200010e565b6200030b565b3390565b600780546001600160a01b038381166001600160a01b0319831681179093556040519116919082907f8be0079c531659141344cd1fd0a4f28419497f9722a3daafe3b4186f6b6457e090600090a35050565b6200011862000128565b6200012482826200018a565b5050565b6007546001600160a01b03163314620001885760405162461bcd60e51b815260206004820181905260248201527f4f776e61626c653a2063616c6c6572206973206e6f7420746865206f776e657260448201526064015b60405180910390fd5b565b612710811115620001de5760405162461bcd60e51b815260206004820152601a60248201527f45524332393831526f79616c746965733a20546f6f206869676800000000000060448201526064016200017f565b604080518082019091526001600160a01b0390921680835262ffffff909116602090920182905260068054600160a01b9093026001600160b81b0319909316909117919091179055565b8280546200023690620002ce565b90600052602060002090601f0160209004810192826200025a5760008555620002a5565b82601f106200027557805160ff1916838001178555620002a5565b82800160010185558215620002a5579182015b82811115620002a557825182559160200191906001019062000288565b50620002b3929150620002b7565b5090565b5b80821115620002b35760008155600101620002b8565b600181811c90821680620002e357607f821691505b602082108114156200030557634e487b7160e01b600052602260045260246000fd5b50919050565b6141e5806200031b6000396000f3fe60806040523480156200001157600080fd5b5060043610620001c55760003560e01c8063715018a61162000101578063b88d4fde11620000a3578063d574ea3d116200007a578063d574ea3d14620004ae578063e985e9c514620004da578063f2fde38b1462000519578063faac4325146200053057600080fd5b8063b88d4fde1462000454578063c87b56dd146200046b578063cfc0cc34146200048257600080fd5b80638da5cb5b11620000d85780638da5cb5b146200042157806395d89b411462000433578063a22cb465146200043d57600080fd5b8063715018a614620003da5780637d19e59614620003e45780638c7ea24b146200040a57600080fd5b806323b872dd116200016b57806342842e0e116200014257806342842e0e14620003955780636352211e14620003ac57806370a0823114620003c357600080fd5b806323b872dd14620003305780632a55205a14620003475780633dc879f6146200037e57600080fd5b8063081812fc11620001a0578063081812fc14620002ce578063095ea7b314620002fe57806318160ddd146200031757600080fd5b8063012f52ee14620001ca57806301ffc9a7146200028d57806306fdde0314620002b5575b600080fd5b62000234620001db36600462002169565b60086020819052600091825260409091208054600182015460028301546003840154600485015460058601546006870154600788015497909801546001600160a01b039687169895871697948716969395929491931689565b604080516001600160a01b039a8b168152988a1660208a0152968916968801969096526060870194909452608086019290925260a085015260c084015260e0830152909116610100820152610120015b60405180910390f35b620002a46200029e3660046200219a565b62000547565b604051901515815260200162000284565b620002bf6200055a565b60405162000284919062002217565b620002e5620002df36600462002169565b620005f4565b6040516001600160a01b03909116815260200162000284565b620003156200030f36600462002249565b6200061d565b005b6200032162000742565b60405190815260200162000284565b620003156200034136600462002276565b62000753565b6200035e62000358366004620022b7565b620007cc565b604080516001600160a01b03909316835260208301919091520162000284565b620003216200038f36600462002351565b62000825565b62000315620003a636600462002276565b62000d0a565b620002e5620003bd36600462002169565b62000d17565b62000321620003d4366004620023ef565b62000d7e565b6200031562000e1a565b620003fb620003f536600462002169565b62000e32565b6040516200028491906200240d565b620003156200041b36600462002249565b62000f2d565b6007546001600160a01b0316620002e5565b620002bf62000f47565b620003156200044e366004620024a1565b62000f58565b620003156200046536600462002508565b62000f65565b620002bf6200047c36600462002169565b62000fea565b620002e56200049336600462002169565b6000908152600a60205260409020546001600160a01b031690565b620002e5620004bf36600462002169565b600a602052600090815260409020546001600160a01b031681565b620002a4620004eb366004620025bf565b6001600160a01b03918216600090815260056020908152604080832093909416825291909152205460ff1690565b620003156200052a366004620023ef565b62000ff7565b6200031562000541366004620025f7565b6200108d565b600062000554826200113a565b92915050565b6060600080546200056b906200261d565b80601f016020809104026020016040519081016040528092919081815260200182805462000599906200261d565b8015620005ea5780601f10620005be57610100808354040283529160200191620005ea565b820191906000526020600020905b815481529060010190602001808311620005cc57829003601f168201915b5050505050905090565b6000620006018262001162565b506000908152600460205260409020546001600160a01b031690565b60006200062a8262000d17565b9050806001600160a01b0316836001600160a01b031614156200069e5760405162461bcd60e51b815260206004820152602160248201527f4552433732313a20617070726f76616c20746f2063757272656e74206f776e656044820152603960f91b60648201526084015b60405180910390fd5b336001600160a01b0382161480620006bd5750620006bd8133620004eb565b620007315760405162461bcd60e51b815260206004820152603e60248201527f4552433732313a20617070726f76652063616c6c6572206973206e6f7420746f60448201527f6b656e206f776e6572206e6f7220617070726f76656420666f7220616c6c0000606482015260840162000695565b6200073d8383620011c8565b505050565b60006200074e60095490565b905090565b6200076083838362001238565b60008181526008602090815260409182902060010180546001600160a01b0319166001600160a01b038681169182179092559251848152908616917f7a26c80a260630785315cdfbf9b1875a7894d582e0c9c9d1eae8be96ba7f6dde91015b60405180910390a3505050565b604080518082019091526006546001600160a01b038116808352600160a01b90910462ffffff16602083018190529091600091612710906200080f908662002670565b6200081b9190620026a8565b9150509250929050565b6000816000816060015111620008a45760405162461bcd60e51b815260206004820152603660248201527f436170617a457363726f77466163746f72793a20746f74616c416d6f756e742060448201527f6d7573742062652067726561746572207468616e203000000000000000000000606482015260840162000695565b60008160a0015111620009205760405162461bcd60e51b815260206004820152603960248201527f436170617a457363726f77466163746f72793a20706572696f6444757261746960448201527f6f6e206d7573742062652067726561746572207468616e203000000000000000606482015260840162000695565b60008160c00151116200099c5760405162461bcd60e51b815260206004820152603060248201527f436170617a457363726f77466163746f72793a2074696d6573206d757374206260448201527f652067726561746572207468616e203000000000000000000000000000000000606482015260840162000695565b4281608001511162000a175760405162461bcd60e51b815260206004820152603f60248201527f436170617a457363726f77466163746f72793a20737461727454696d65206d7560448201527f73742062652067726561746572207468616e2063757272656e742074696d6500606482015260840162000695565b60e0810180516000908152600a602052604090205490516001600160a01b0390911690158062000a4f57506001600160a01b03811615155b62000ac35760405162461bcd60e51b815260206004820152603560248201527f436170617a457363726f77466163746f72793a207374726174656779206d757360448201527f7420626520612076616c69642073747261746567790000000000000000000000606482015260840162000695565b600060405162000ad3906200215b565b604051809103906000f08015801562000af0573d6000803e3d6000fd5b506040808701518751606089015192516323b872dd60e01b81526001600160a01b0391821660048201528185166024820152604481019390935292935091909116906323b872dd906064016020604051808303816000875af115801562000b5b573d6000803e3d6000fd5b505050506040513d601f19601f8201168201806040525081019062000b819190620026bf565b50600062000b8e60095490565b905062000b9f600980546001019055565b6001600160a01b0382811661010088018181526000848152600860208181526040928390208c5181549088166001600160a01b0319918216178255918d0151600182018054918916918416919091179055838d015160028201805491891691841691909117905560608d0151600382015560808d015160048083019190915560a08e0151600583015560c08e0151600683015560e08e01516007830155945192018054929096169116179093559151634313b9e560e01b815291820183905290634313b9e590602401600060405180830381600087803b15801562000c8357600080fd5b505af115801562000c98573d6000803e3d6000fd5b5050505062000cac866020015182620012b6565b85602001516001600160a01b031686600001516001600160a01b03167f798152d185d5a5e0f617ec8b1a989fe3470809f7826515fe87f14ae332d0f2758860405162000cf991906200240d565b60405180910390a395945050505050565b62000760838383620012d2565b6000818152600260205260408120546001600160a01b031680620005545760405162461bcd60e51b815260206004820152601860248201527f4552433732313a20696e76616c696420746f6b656e2049440000000000000000604482015260640162000695565b60006001600160a01b03821662000dfe5760405162461bcd60e51b815260206004820152602960248201527f4552433732313a2061646472657373207a65726f206973206e6f74206120766160448201527f6c6964206f776e65720000000000000000000000000000000000000000000000606482015260840162000695565b506001600160a01b031660009081526003602052604090205490565b62000e24620012ef565b62000e3060006200134b565b565b62000ea660405180610120016040528060006001600160a01b0316815260200160006001600160a01b0316815260200160006001600160a01b03168152602001600081526020016000815260200160008152602001600081526020016000815260200160006001600160a01b031681525090565b5060009081526008602081815260409283902083516101208101855281546001600160a01b039081168252600183015481169382019390935260028201548316948101949094526003810154606085015260048101546080850152600581015460a0850152600681015460c0850152600781015460e0850152909101541661010082015290565b62000f37620012ef565b62000f4382826200139d565b5050565b6060600180546200056b906200261d565b62000f4333838362001453565b62000f7133836200151d565b62000fd65760405162461bcd60e51b815260206004820152602e60248201527f4552433732313a2063616c6c6572206973206e6f7420746f6b656e206f776e6560448201526d1c881b9bdc88185c1c1c9bdd995960921b606482015260840162000695565b62000fe484848484620015a2565b50505050565b6060620005548262001626565b62001001620012ef565b6001600160a01b0381166200107f5760405162461bcd60e51b815260206004820152602660248201527f4f776e61626c653a206e6577206f776e657220697320746865207a65726f206160448201527f6464726573730000000000000000000000000000000000000000000000000000606482015260840162000695565b6200108a816200134b565b50565b62001097620012ef565b816200110c5760405162461bcd60e51b815260206004820152603360248201527f53747261746567792069642063616e6e6f7420626520302c207265736572766560448201527f6420666f72206e6f6e6520737472617465677900000000000000000000000000606482015260840162000695565b6000918252600a602052604090912080546001600160a01b0319166001600160a01b03909216919091179055565b60006001600160e01b0319821663152a902d60e11b14806200055457506200055482620017ac565b6000818152600260205260409020546001600160a01b03166200108a5760405162461bcd60e51b815260206004820152601860248201527f4552433732313a20696e76616c696420746f6b656e2049440000000000000000604482015260640162000695565b600081815260046020526040902080546001600160a01b0319166001600160a01b0384169081179091558190620011ff8262000d17565b6001600160a01b03167f8c5be1e5ebec7d5bd14f71427d1e84f3dd0314c0f7b2291e5b200ac8c7c3b92560405160405180910390a45050565b6200124433826200151d565b620012a95760405162461bcd60e51b815260206004820152602e60248201527f4552433732313a2063616c6c6572206973206e6f7420746f6b656e206f776e6560448201526d1c881b9bdc88185c1c1c9bdd995960921b606482015260840162000695565b6200073d838383620017ff565b62000f43828260405180602001604052806000815250620019bf565b6200073d8383836040518060200160405280600081525062000f65565b6007546001600160a01b0316331462000e305760405162461bcd60e51b815260206004820181905260248201527f4f776e61626c653a2063616c6c6572206973206e6f7420746865206f776e6572604482015260640162000695565b600780546001600160a01b038381166001600160a01b0319831681179093556040519116919082907f8be0079c531659141344cd1fd0a4f28419497f9722a3daafe3b4186f6b6457e090600090a35050565b612710811115620013f15760405162461bcd60e51b815260206004820152601a60248201527f45524332393831526f79616c746965733a20546f6f2068696768000000000000604482015260640162000695565b604080518082019091526001600160a01b0390921680835262ffffff909116602090920182905260068054600160a01b9093027fffffffffffffffffff0000000000000000000000000000000000000000000000909316909117919091179055565b816001600160a01b0316836001600160a01b03161415620014b75760405162461bcd60e51b815260206004820152601960248201527f4552433732313a20617070726f766520746f2063616c6c657200000000000000604482015260640162000695565b6001600160a01b03838116600081815260056020908152604080832094871680845294825291829020805460ff191686151590811790915591519182527f17307eab39ab6107e8899845ad3d59bd9653f200f220920489ca2b5937696c319101620007bf565b6000806200152b8362000d17565b9050806001600160a01b0316846001600160a01b031614806200157357506001600160a01b0380821660009081526005602090815260408083209388168352929052205460ff165b806200159a5750836001600160a01b03166200158f84620005f4565b6001600160a01b0316145b949350505050565b620015af848484620017ff565b620015bd8484848462001a43565b62000fe45760405162461bcd60e51b815260206004820152603260248201527f4552433732313a207472616e7366657220746f206e6f6e20455243373231526560448201527131b2b4bb32b91034b6b83632b6b2b73a32b960711b606482015260840162000695565b60606000620016358362000e32565b9050600081604001516001600160a01b03166395d89b416040518163ffffffff1660e01b8152600401600060405180830381865afa1580156200167c573d6000803e3d6000fd5b505050506040513d6000823e601f3d908101601f19168201604052620016a69190810190620026df565b90506000620016de620016bd846060015162001b98565b604051806040016040528060018152602001600160fd1b8152508462001cae565b905060006200170e82604051602001620016f991906200277d565b60405160208183030381529060405262001cdf565b60405160200162001720919062002b0b565b6040516020818303038152906040529050620017806200174f85600001516001600160a01b0316601462001e45565b6200176986602001516001600160a01b0316601462001e45565b8484604051602001620016f9949392919062002b52565b60405160200162001792919062002c8d565b604051602081830303815290604052945050505050919050565b60006001600160e01b031982166380ac58cd60e01b1480620017de57506001600160e01b03198216635b5e139f60e01b145b806200055457506301ffc9a760e01b6001600160e01b031983161462000554565b826001600160a01b0316620018148262000d17565b6001600160a01b031614620018925760405162461bcd60e51b815260206004820152602560248201527f4552433732313a207472616e736665722066726f6d20696e636f72726563742060448201527f6f776e6572000000000000000000000000000000000000000000000000000000606482015260840162000695565b6001600160a01b038216620018f65760405162461bcd60e51b8152602060048201526024808201527f4552433732313a207472616e7366657220746f20746865207a65726f206164646044820152637265737360e01b606482015260840162000695565b62001903600082620011c8565b6001600160a01b03831660009081526003602052604081208054600192906200192e90849062002cd4565b90915550506001600160a01b03821660009081526003602052604081208054600192906200195e90849062002cee565b909155505060008181526002602052604080822080546001600160a01b0319166001600160a01b0386811691821790925591518493918716917fddf252ad1be2c89b69c2b068fc378daa952ba7f163c4a11628f55a4df523b3ef91a4505050565b620019cb838362002013565b620019da600084848462001a43565b6200073d5760405162461bcd60e51b815260206004820152603260248201527f4552433732313a207472616e7366657220746f206e6f6e20455243373231526560448201527131b2b4bb32b91034b6b83632b6b2b73a32b960711b606482015260840162000695565b60006001600160a01b0384163b1562001b8d57604051630a85bd0160e11b81526001600160a01b0385169063150b7a029062001a8a90339089908890889060040162002d09565b6020604051808303816000875af192505050801562001ac8575060408051601f3d908101601f1916820190925262001ac59181019062002d47565b60015b62001b72573d80801562001af9576040519150601f19603f3d011682016040523d82523d6000602084013e62001afe565b606091505b50805162001b6a5760405162461bcd60e51b815260206004820152603260248201527f4552433732313a207472616e7366657220746f206e6f6e20455243373231526560448201527131b2b4bb32b91034b6b83632b6b2b73a32b960711b606482015260840162000695565b805181602001fd5b6001600160e01b031916630a85bd0160e11b1490506200159a565b506001949350505050565b60608162001bbd5750506040805180820190915260018152600360fc1b602082015290565b8160005b811562001bed578062001bd48162002d67565b915062001be59050600a83620026a8565b915062001bc1565b60008167ffffffffffffffff81111562001c0b5762001c0b620022da565b6040519080825280601f01601f19166020018201604052801562001c36576020820181803683370190505b5090505b84156200159a5762001c4e60018362002cd4565b915062001c5d600a8662002d85565b62001c6a90603062002cee565b60f81b81838151811062001c825762001c8262002d9c565b60200101906001600160f81b031916908160001a90535062001ca6600a86620026a8565b945062001c3a565b606083838360405160200162001cc79392919062002db2565b60405160208183030381529060405290509392505050565b606081516000141562001d0057505060408051602081019091526000815290565b600060405180606001604052806040815260200162004199604091399050600060038451600262001d32919062002cee565b62001d3e9190620026a8565b62001d4b90600462002670565b67ffffffffffffffff81111562001d665762001d66620022da565b6040519080825280601f01601f19166020018201604052801562001d91576020820181803683370190505b509050600182016020820185865187015b8082101562001dff576003820191508151603f8160121c168501518453600184019350603f81600c1c168501518453600184019350603f8160061c168501518453600184019350603f811685015184535060018301925062001da2565b505060038651066001811462001e1e576002811462001e325762001e3a565b603d6001830353603d600283035362001e3a565b603d60018303535b509195945050505050565b6060600062001e5683600262002670565b62001e6390600262002cee565b67ffffffffffffffff81111562001e7e5762001e7e620022da565b6040519080825280601f01601f19166020018201604052801562001ea9576020820181803683370190505b509050600360fc1b8160008151811062001ec75762001ec762002d9c565b60200101906001600160f81b031916908160001a905350600f60fb1b8160018151811062001ef95762001ef962002d9c565b60200101906001600160f81b031916908160001a905350600062001f1f84600262002670565b62001f2c90600162002cee565b90505b600181111562001fbb577f303132333435363738396162636465660000000000000000000000000000000085600f166010811062001f715762001f7162002d9c565b1a60f81b82828151811062001f8a5762001f8a62002d9c565b60200101906001600160f81b031916908160001a90535060049490941c9362001fb38162002dfb565b905062001f2f565b5083156200200c5760405162461bcd60e51b815260206004820181905260248201527f537472696e67733a20686578206c656e67746820696e73756666696369656e74604482015260640162000695565b9392505050565b6001600160a01b0382166200206b5760405162461bcd60e51b815260206004820181905260248201527f4552433732313a206d696e7420746f20746865207a65726f2061646472657373604482015260640162000695565b6000818152600260205260409020546001600160a01b031615620020d25760405162461bcd60e51b815260206004820152601c60248201527f4552433732313a20746f6b656e20616c7265616479206d696e74656400000000604482015260640162000695565b6001600160a01b0382166000908152600360205260408120805460019290620020fd90849062002cee565b909155505060008181526002602052604080822080546001600160a01b0319166001600160a01b03861690811790915590518392907fddf252ad1be2c89b69c2b068fc378daa952ba7f163c4a11628f55a4df523b3ef908290a45050565b6113838062002e1683390190565b6000602082840312156200217c57600080fd5b5035919050565b6001600160e01b0319811681146200108a57600080fd5b600060208284031215620021ad57600080fd5b81356200200c8162002183565b60005b83811015620021d7578181015183820152602001620021bd565b8381111562000fe45750506000910152565b6000815180845262002203816020860160208601620021ba565b601f01601f19169290920160200192915050565b6020815260006200200c6020830184620021e9565b80356001600160a01b03811681146200224457600080fd5b919050565b600080604083850312156200225d57600080fd5b62002268836200222c565b946020939093013593505050565b6000806000606084860312156200228c57600080fd5b62002297846200222c565b9250620022a7602085016200222c565b9150604084013590509250925092565b60008060408385031215620022cb57600080fd5b50508035926020909101359150565b634e487b7160e01b600052604160045260246000fd5b604051610120810167ffffffffffffffff81118282101715620023175762002317620022da565b60405290565b604051601f8201601f1916810167ffffffffffffffff81118282101715620023495762002349620022da565b604052919050565b600061012082840312156200236557600080fd5b6200236f620022f0565b6200237a836200222c565b81526200238a602084016200222c565b60208201526200239d604084016200222c565b6040820152606083013560608201526080830135608082015260a083013560a082015260c083013560c082015260e083013560e0820152610100620023e48185016200222c565b908201529392505050565b6000602082840312156200240257600080fd5b6200200c826200222c565b81516001600160a01b0390811682526020808401518216908301526040808401519182169083015261012082019050606083015160608301526080830151608083015260a083015160a083015260c083015160c083015260e083015160e0830152610100808401516200248a828501826001600160a01b03169052565b505092915050565b80151581146200108a57600080fd5b60008060408385031215620024b557600080fd5b620024c0836200222c565b91506020830135620024d28162002492565b809150509250929050565b600067ffffffffffffffff821115620024fa57620024fa620022da565b50601f01601f191660200190565b600080600080608085870312156200251f57600080fd5b6200252a856200222c565b93506200253a602086016200222c565b925060408501359150606085013567ffffffffffffffff8111156200255e57600080fd5b8501601f810187136200257057600080fd5b8035620025876200258182620024dd565b6200231d565b8181528860208385010111156200259d57600080fd5b8160208401602083013760006020838301015280935050505092959194509250565b60008060408385031215620025d357600080fd5b620025de836200222c565b9150620025ee602084016200222c565b90509250929050565b600080604083850312156200260b57600080fd5b82359150620025ee602084016200222c565b600181811c908216806200263257607f821691505b602082108114156200265457634e487b7160e01b600052602260045260246000fd5b50919050565b634e487b7160e01b600052601160045260246000fd5b60008160001904831182151516156200268d576200268d6200265a565b500290565b634e487b7160e01b600052601260045260246000fd5b600082620026ba57620026ba62002692565b500490565b600060208284031215620026d257600080fd5b81516200200c8162002492565b600060208284031215620026f257600080fd5b815167ffffffffffffffff8111156200270a57600080fd5b8201601f810184136200271c57600080fd5b80516200272d6200258182620024dd565b8181528560208385010111156200274357600080fd5b62002756826020830160208601620021ba565b95945050505050565b6000815162002773818560208601620021ba565b9290920192915050565b7f3c73766720786d6c6e733d22687474703a2f2f7777772e77332e6f72672f323081527f30302f737667222076696577426f783d223020302039303020393030223e3c6460208201527f6566733e3c66696c7465722069643d2241223e3c6665466c6f6f6420666c6f6f60408201527f642d6f7061636974793d2230222f3e3c6665426c656e6420696e3d22536f757260608201527f636547726170686963222f3e3c6665476175737369616e426c7572207374644460808201527f6576696174696f6e3d22313839222f3e3c2f66696c7465723e3c2f646566733e60a08201527f3c706174682066696c6c3d22236531316434382220643d224d3020306839303060c08201527f7639303048307a222f3e3c672066696c7465723d2275726c28234129223e3c6360e08201527f6972636c652063783d22343639222063793d223438392220723d2234323022206101008201527f66696c6c3d2223663433663565222f3e3c636972636c652063783d22333533226101208201527f2063793d223133372220723d22343230222066696c6c3d2223653131643438226101408201527f2f3e3c672066696c6c3d2223663433663565223e3c636972636c652063783d226101608201527f373038222063793d223230312220723d22343230222f3e3c636972636c6520636101808201527f783d22323736222063793d223538302220723d22343230222f3e3c2f673e3c636101a08201527f6972636c652063783d22363831222063793d223833352220723d2234323022206101c08201527f66696c6c3d2223653131643438222f3e3c636972636c652063783d22313035226101e08201527f2063793d223134362220723d22343230222066696c6c3d2223663433663565226102008201527f2f3e3c2f673e3c7465787420783d2233302220793d22353022207374796c653d6102208201527f22666f6e743a323070782073616e732d73657269663b66696c6c3a23666666226102408201527f3e436170617a20457363726f773c2f746578743e3c7465787420783d223330226102608201527f20793d2237303022207374796c653d22666f6e743a373070782073616e732d736102808201527f657269663b66696c6c3a23666666223e000000000000000000000000000000006102a082015260006200200c62002ae26102b08401856200275f565b7f3c2f746578743e3c2f7376673e000000000000000000000000000000000000008152600d0190565b7f646174613a696d6167652f7376672b786d6c3b6261736536342c00000000000081526000825162002b4581601a850160208701620021ba565b91909101601a0192915050565b7f7b2273656e646572223a2200000000000000000000000000000000000000000081526000855162002b8c81600b850160208a01620021ba565b7f222c20227265636569766572223a220000000000000000000000000000000000600b91840191820152855162002bcb81601a840160208a01620021ba565b7f222c2022746f74616c416d6f756e74223a220000000000000000000000000000601a9290910191820152845162002c0b81602c840160208901620021ba565b7f222c2022696d616765223a220000000000000000000000000000000000000000602c9290910191820152835162002c4b816038840160208801620021ba565b7f222c20226465736372697074696f6e223a2022436170617a20457363726f772260389290910191820152607d60f81b60588201526059019695505050505050565b7f646174613a6170706c69636174696f6e2f6a736f6e3b6261736536342c00000081526000825162002cc781601d850160208701620021ba565b91909101601d0192915050565b60008282101562002ce95762002ce96200265a565b500390565b6000821982111562002d045762002d046200265a565b500190565b60006001600160a01b0380871683528086166020840152508360408301526080606083015262002d3d6080830184620021e9565b9695505050505050565b60006020828403121562002d5a57600080fd5b81516200200c8162002183565b600060001982141562002d7e5762002d7e6200265a565b5060010190565b60008262002d975762002d9762002692565b500690565b634e487b7160e01b600052603260045260246000fd5b6000845162002dc6818460208901620021ba565b84519083019062002ddc818360208901620021ba565b845191019062002df1818360208801620021ba565b0195945050505050565b60008162002e0d5762002e0d6200265a565b50600019019056fe608060405234801561001057600080fd5b5061001a3361001f565b61006f565b600080546001600160a01b038381166001600160a01b0319831681178455604051919092169283917f8be0079c531659141344cd1fd0a4f28419497f9722a3daafe3b4186f6b6457e09190a35050565b6113058061007e6000396000f3fe608060405234801561001057600080fd5b50600436106100d45760003560e01c806386d1a69f116100815780639ee778241161005b5780639ee778241461018d578063a208ae38146101a0578063f2fde38b146101b557600080fd5b806386d1a69f146101615780638da5cb5b1461016957806390b8037c1461017a57600080fd5b80634313b9e5116100b25780634313b9e51461013c5780635b94008114610151578063715018a61461015957600080fd5b806307da0603146100d957806311e96216146100fe5780633f4632d31461011f575b600080fd5b6100e16101c8565b6040516001600160a01b0390911681526020015b60405180910390f35b61011161010c366004611001565b610251565b6040519081526020016100f5565b60045461012c9060ff1681565b60405190151581526020016100f5565b61014f61014a366004611094565b61026d565b005b6101116104f7565b61014f61057b565b61011161058f565b6000546001600160a01b03166100e1565b61014f6101883660046110ad565b6107f3565b61011161019b366004611001565b610d3c565b6101a8610d56565b6040516100f591906110e6565b61014f6101c336600461116a565b610e45565b6000806101d3610d56565b60e08101516001546040516333f0330d60e21b81526004810183905292935090916001600160a01b039091169063cfc0cc3490602401602060405180830381865afa158015610226573d6000803e3d6000fd5b505050506040513d601f19601f8201168201806040525081019061024a9190611192565b9250505090565b60008160a001518260c0015161026791906111c5565b92915050565b610275610ed5565b6002819055600080546001805473ffffffffffffffffffffffffffffffffffffffff19166001600160a01b039092169190911790556102b2610d56565b60e0810151909150801561049f5760006102ca6101c8565b6040848101516060860151915163095ea7b360e01b81526001600160a01b03808516600483015260248201849052939450909283169063095ea7b3906044016020604051808303816000875af1158015610328573d6000803e3d6000fd5b505050506040513d601f19601f8201168201806040525081019061034c91906111e4565b50604085810151905163cb54a10f60e01b81526001600160a01b03918216600482015260009185169063cb54a10f90602401602060405180830381865afa15801561039b573d6000803e3d6000fd5b505050506040513d601f19601f820116820180604052508101906103bf9190611192565b60405163095ea7b360e01b81526001600160a01b03868116600483015260001960248301529192509082169063095ea7b3906044016020604051808303816000875af1158015610413573d6000803e3d6000fd5b505050506040513d601f19601f8201168201806040525081019061043791906111e4565b506040516311f9fbc960e21b81526001600160a01b038481166004830152602482018490528516906347e7ef2490604401600060405180830381600087803b15801561048257600080fd5b505af1158015610496573d6000803e3d6000fd5b50505050505050505b81602001516001600160a01b031682600001516001600160a01b03167f59b5859674e76737b621cb5ce0bc99e19c30427e4a692abd1b58c2b23b5fa997846040516104ea91906110e6565b60405180910390a3505050565b600080610502610d56565b90508060800151421161051757600091505090565b60c081015160a08201516080830151600091610547916105379042611206565b610541919061121d565b83610f2f565b9050600060035483856060015161055e919061121d565b61056890846111c5565b6105729190611206565b95945050505050565b610583610ed5565b61058d6000610f47565b565b60008061059a610d56565b602081015190915060006105ac6104f7565b90506000811161060f5760405162461bcd60e51b815260206004820152602360248201527f596f7520646f6e2774206861766520616e792066756e647320746f2072656c6560448201526261736560e81b60648201526084015b60405180910390fd5b82606001516003541061068a5760405162461bcd60e51b815260206004820152602760248201527f596f75206861766520616c72656164792072656c656173656420616c6c20746860448201527f652066756e6473000000000000000000000000000000000000000000000000006064820152608401610606565b60e0830151801561071757600061069f6101c8565b60408681015190516304f4b51360e51b81526001600160a01b039182166004820152602481018690528682166044820152919250821690639e96a26090606401600060405180830381600087803b1580156106f957600080fd5b505af115801561070d573d6000803e3d6000fd5b5050505050610792565b604080850151905163a9059cbb60e01b81526001600160a01b038581166004830152602482018590529091169063a9059cbb906044016020604051808303816000875af115801561076c573d6000803e3d6000fd5b505050506040513d601f19601f8201168201806040525081019061079091906111e4565b505b81600360008282546107a4919061123f565b9091555050604080516001600160a01b0385168152602081018490527fb21fb52d5749b80f3182f8c6992236b5e5576681880914484d7f4c9b062e619e910160405180910390a1509392505050565b600154600254604051633e8cf2cb60e11b81526001600160a01b0390921691637d19e596916108289160040190815260200190565b61012060405180830381865afa158015610846573d6000803e3d6000fd5b505050506040513d601f19601f8201168201806040525081019061086a9190611257565b516001600160a01b031633146108e85760405162461bcd60e51b815260206004820152602f60248201527f436170617a457363726f773a204f6e6c792073656e6465722063616e2063616c60448201527f6c20746869732066756e6374696f6e00000000000000000000000000000000006064820152608401610606565b60006108f2610d56565b90508060e00151600014156109495760405162461bcd60e51b815260206004820152601560248201527f4e6f207969656c642073747261746567792073657400000000000000000000006044820152606401610606565b61095281610d3c565b4210156109c75760405162461bcd60e51b815260206004820152602560248201527f436170617a457363726f773a20457363726f7720686173206e6f7420656e646560448201527f64207965740000000000000000000000000000000000000000000000000000006064820152608401610606565b60045460ff1615610a255760405162461bcd60e51b815260206004820152602260248201527f436170617a457363726f773a205969656c6420616c726561647920636c61696d604482015261195960f21b6064820152608401610606565b80606001516003541015610a3d57610a3b61058f565b505b6000610a476101c8565b9050826001600160a01b0316846001600160a01b03161415610ad1576040828101519051635767bba560e01b81526001600160a01b039182166004820152858216602482015290821690635767bba590604401600060405180830381600087803b158015610ab457600080fd5b505af1158015610ac8573d6000803e3d6000fd5b50505050610cdb565b6040828101519051635767bba560e01b81526001600160a01b03918216600482015230602482015290821690635767bba590604401600060405180830381600087803b158015610b2057600080fd5b505af1158015610b34573d6000803e3d6000fd5b5050505060408281015190516370a0823160e01b81523060048201526000916001600160a01b0316906370a0823190602401602060405180830381865afa158015610b83573d6000803e3d6000fd5b505050506040513d601f19601f82011682018060405250810190610ba791906112df565b90506000610bb660028361121d565b604080860151905163a9059cbb60e01b81526001600160a01b0389811660048301526024820184905292935091169063a9059cbb906044016020604051808303816000875af1158015610c0d573d6000803e3d6000fd5b505050506040513d601f19601f82011682018060405250810190610c3191906111e4565b5060408401516001600160a01b031663a9059cbb86610c508486611206565b6040517fffffffff0000000000000000000000000000000000000000000000000000000060e085901b1681526001600160a01b03909216600483015260248201526044016020604051808303816000875af1158015610cb3573d6000803e3d6000fd5b505050506040513d601f19601f82011682018060405250810190610cd791906111e4565b5050505b6004805460ff19166001179055604080516001600160a01b0386811682528516602082015260009181018290527f62f6db630d0f368769015f2386526893a6af9401da723c9904b3aa8800d55c729060600160405180910390a15050505050565b6000610d4782610251565b8260800151610267919061123f565b610dc960405180610120016040528060006001600160a01b0316815260200160006001600160a01b0316815260200160006001600160a01b03168152602001600081526020016000815260200160008152602001600081526020016000815260200160006001600160a01b031681525090565b600154600254604051633e8cf2cb60e11b81526001600160a01b0390921691637d19e59691610dfe9160040190815260200190565b61012060405180830381865afa158015610e1c573d6000803e3d6000fd5b505050506040513d601f19601f82011682018060405250810190610e409190611257565b905090565b610e4d610ed5565b6001600160a01b038116610ec95760405162461bcd60e51b815260206004820152602660248201527f4f776e61626c653a206e6577206f776e657220697320746865207a65726f206160448201527f64647265737300000000000000000000000000000000000000000000000000006064820152608401610606565b610ed281610f47565b50565b6000546001600160a01b0316331461058d5760405162461bcd60e51b815260206004820181905260248201527f4f776e61626c653a2063616c6c6572206973206e6f7420746865206f776e65726044820152606401610606565b6000818310610f3e5781610f40565b825b9392505050565b600080546001600160a01b0383811673ffffffffffffffffffffffffffffffffffffffff19831681178455604051919092169283917f8be0079c531659141344cd1fd0a4f28419497f9722a3daafe3b4186f6b6457e09190a35050565b604051610120810167ffffffffffffffff81118282101715610fd657634e487b7160e01b600052604160045260246000fd5b60405290565b6001600160a01b0381168114610ed257600080fd5b8035610ffc81610fdc565b919050565b6000610120828403121561101457600080fd5b61101c610fa4565b61102583610ff1565b815261103360208401610ff1565b602082015261104460408401610ff1565b6040820152606083013560608201526080830135608082015260a083013560a082015260c083013560c082015260e083013560e0820152610100611089818501610ff1565b908201529392505050565b6000602082840312156110a657600080fd5b5035919050565b600080604083850312156110c057600080fd5b82356110cb81610fdc565b915060208301356110db81610fdc565b809150509250929050565b81516001600160a01b0390811682526020808401518216908301526040808401519182169083015261012082019050606083015160608301526080830151608083015260a083015160a083015260c083015160c083015260e083015160e083015261010080840151611162828501826001600160a01b03169052565b505092915050565b60006020828403121561117c57600080fd5b8135610f4081610fdc565b8051610ffc81610fdc565b6000602082840312156111a457600080fd5b8151610f4081610fdc565b634e487b7160e01b600052601160045260246000fd5b60008160001904831182151516156111df576111df6111af565b500290565b6000602082840312156111f657600080fd5b81518015158114610f4057600080fd5b600082821015611218576112186111af565b500390565b60008261123a57634e487b7160e01b600052601260045260246000fd5b500490565b60008219821115611252576112526111af565b500190565b6000610120828403121561126a57600080fd5b611272610fa4565b61127b83611187565b815261128960208401611187565b602082015261129a60408401611187565b6040820152606083015160608201526080830151608082015260a083015160a082015260c083015160c082015260e083015160e0820152610100611089818501611187565b6000602082840312156112f157600080fd5b505191905056fea164736f6c634300080a000a4142434445464748494a4b4c4d4e4f505152535455565758595a6162636465666768696a6b6c6d6e6f707172737475767778797a303132333435363738392b2fa164736f6c634300080a000a",
  "linkReferences": {},
  "deployedLinkReferences": {}
}