{
  "_format": "hh-sol-artifact-1",
  "contractName": "CapazEscrow",
  "sourceName": "contracts/CapazEscrow.sol",
  "abi": [
    {
      "anonymous": false,
      "inputs": [
        {
          "indexed": true,
          "internalType": "address",
          "name": "previousOwner",
          "type": "address"
        },
        {
          "indexed": true,
          "internalType": "address",
          "name": "newOwner",
          "type": "address"
        }
      ],
      "name": "OwnershipTransferred",
      "type": "event"
    },
    {
      "anonymous": false,
      "inputs": [
        {
          "indexed": false,
          "internalType": "address",
          "name": "receiver",
          "type": "address"
        },
        {
          "indexed": false,
          "internalType": "uint256",
          "name": "amount",
          "type": "uint256"
        }
      ],
      "name": "Released",
      "type": "event"
    },
    {
      "anonymous": false,
      "inputs": [
        {
          "indexed": true,
          "internalType": "address",
          "name": "sender",
          "type": "address"
        },
        {
          "indexed": true,
          "internalType": "address",
          "name": "receiver",
          "type": "address"
        },
        {
          "components": [
            {
              "internalType": "address",
              "name": "sender",
              "type": "address"
            },
            {
              "internalType": "address",
              "name": "receiver",
              "type": "address"
            },
            {
              "internalType": "address",
              "name": "tokenAddress",
              "type": "address"
            },
            {
              "internalType": "uint256",
              "name": "totalAmount",
              "type": "uint256"
            },
            {
              "internalType": "uint256",
              "name": "startTime",
              "type": "uint256"
            },
            {
              "internalType": "uint256",
              "name": "periodDuration",
              "type": "uint256"
            },
            {
              "internalType": "uint256",
              "name": "periods",
              "type": "uint256"
            },
            {
              "internalType": "uint256",
              "name": "yieldStrategyId",
              "type": "uint256"
            },
            {
              "internalType": "address",
              "name": "escrowAddress",
              "type": "address"
            }
          ],
          "indexed": false,
          "internalType": "struct CapazCommon.Escrow",
          "name": "escrow",
          "type": "tuple"
        }
      ],
      "name": "SetUp",
      "type": "event"
    },
    {
      "anonymous": false,
      "inputs": [
        {
          "indexed": false,
          "internalType": "address",
          "name": "user1",
          "type": "address"
        },
        {
          "indexed": false,
          "internalType": "address",
          "name": "user2",
          "type": "address"
        },
        {
          "indexed": false,
          "internalType": "uint256",
          "name": "amount",
          "type": "uint256"
        }
      ],
      "name": "YieldDistributed",
      "type": "event"
    },
    {
      "inputs": [
        {
          "internalType": "address",
          "name": "user1",
          "type": "address"
        },
        {
          "internalType": "address",
          "name": "user2",
          "type": "address"
        }
      ],
      "name": "distributeYield",
      "outputs": [],
      "stateMutability": "nonpayable",
      "type": "function"
    },
    {
      "inputs": [
        {
          "components": [
            {
              "internalType": "address",
              "name": "sender",
              "type": "address"
            },
            {
              "internalType": "address",
              "name": "receiver",
              "type": "address"
            },
            {
              "internalType": "address",
              "name": "tokenAddress",
              "type": "address"
            },
            {
              "internalType": "uint256",
              "name": "totalAmount",
              "type": "uint256"
            },
            {
              "internalType": "uint256",
              "name": "startTime",
              "type": "uint256"
            },
            {
              "internalType": "uint256",
              "name": "periodDuration",
              "type": "uint256"
            },
            {
              "internalType": "uint256",
              "name": "periods",
              "type": "uint256"
            },
            {
              "internalType": "uint256",
              "name": "yieldStrategyId",
              "type": "uint256"
            },
            {
              "internalType": "address",
              "name": "escrowAddress",
              "type": "address"
            }
          ],
          "internalType": "struct CapazCommon.Escrow",
          "name": "_escrow",
          "type": "tuple"
        }
      ],
      "name": "escrowEndTimestamp",
      "outputs": [
        {
          "internalType": "uint256",
          "name": "",
          "type": "uint256"
        }
      ],
      "stateMutability": "pure",
      "type": "function"
    },
    {
      "inputs": [
        {
          "components": [
            {
              "internalType": "address",
              "name": "sender",
              "type": "address"
            },
            {
              "internalType": "address",
              "name": "receiver",
              "type": "address"
            },
            {
              "internalType": "address",
              "name": "tokenAddress",
              "type": "address"
            },
            {
              "internalType": "uint256",
              "name": "totalAmount",
              "type": "uint256"
            },
            {
              "internalType": "uint256",
              "name": "startTime",
              "type": "uint256"
            },
            {
              "internalType": "uint256",
              "name": "periodDuration",
              "type": "uint256"
            },
            {
              "internalType": "uint256",
              "name": "periods",
              "type": "uint256"
            },
            {
              "internalType": "uint256",
              "name": "yieldStrategyId",
              "type": "uint256"
            },
            {
              "internalType": "address",
              "name": "escrowAddress",
              "type": "address"
            }
          ],
          "internalType": "struct CapazCommon.Escrow",
          "name": "_escrow",
          "type": "tuple"
        }
      ],
      "name": "escrowLenght",
      "outputs": [
        {
          "internalType": "uint256",
          "name": "",
          "type": "uint256"
        }
      ],
      "stateMutability": "pure",
      "type": "function"
    },
    {
      "inputs": [],
      "name": "getEscrow",
      "outputs": [
        {
          "components": [
            {
              "internalType": "address",
              "name": "sender",
              "type": "address"
            },
            {
              "internalType": "address",
              "name": "receiver",
              "type": "address"
            },
            {
              "internalType": "address",
              "name": "tokenAddress",
              "type": "address"
            },
            {
              "internalType": "uint256",
              "name": "totalAmount",
              "type": "uint256"
            },
            {
              "internalType": "uint256",
              "name": "startTime",
              "type": "uint256"
            },
            {
              "internalType": "uint256",
              "name": "periodDuration",
              "type": "uint256"
            },
            {
              "internalType": "uint256",
              "name": "periods",
              "type": "uint256"
            },
            {
              "internalType": "uint256",
              "name": "yieldStrategyId",
              "type": "uint256"
            },
            {
              "internalType": "address",
              "name": "escrowAddress",
              "type": "address"
            }
          ],
          "internalType": "struct CapazCommon.Escrow",
          "name": "",
          "type": "tuple"
        }
      ],
      "stateMutability": "view",
      "type": "function"
    },
    {
      "inputs": [],
      "name": "getStrategy",
      "outputs": [
        {
          "internalType": "contract IStrategy",
          "name": "",
          "type": "address"
        }
      ],
      "stateMutability": "view",
      "type": "function"
    },
    {
      "inputs": [],
      "name": "owner",
      "outputs": [
        {
          "internalType": "address",
          "name": "",
          "type": "address"
        }
      ],
      "stateMutability": "view",
      "type": "function"
    },
    {
      "inputs": [],
      "name": "releasableAmount",
      "outputs": [
        {
          "internalType": "uint256",
          "name": "",
          "type": "uint256"
        }
      ],
      "stateMutability": "view",
      "type": "function"
    },
    {
      "inputs": [],
      "name": "release",
      "outputs": [
        {
          "internalType": "uint256",
          "name": "",
          "type": "uint256"
        }
      ],
      "stateMutability": "nonpayable",
      "type": "function"
    },
    {
      "inputs": [],
      "name": "renounceOwnership",
      "outputs": [],
      "stateMutability": "nonpayable",
      "type": "function"
    },
    {
      "inputs": [
        {
          "internalType": "uint256",
          "name": "_tokenId",
          "type": "uint256"
        }
      ],
      "name": "setup",
      "outputs": [],
      "stateMutability": "nonpayable",
      "type": "function"
    },
    {
      "inputs": [
        {
          "internalType": "address",
          "name": "newOwner",
          "type": "address"
        }
      ],
      "name": "transferOwnership",
      "outputs": [],
      "stateMutability": "nonpayable",
      "type": "function"
    }
  ],
  "bytecode": "0x608060405234801561001057600080fd5b5061001a3361001f565b61006f565b600080546001600160a01b038381166001600160a01b0319831681178455604051919092169283917f8be0079c531659141344cd1fd0a4f28419497f9722a3daafe3b4186f6b6457e09190a35050565b6112dd8061007e6000396000f3fe608060405234801561001057600080fd5b50600436106100c95760003560e01c806386d1a69f116100815780639ee778241161005b5780639ee7782414610165578063a208ae3814610178578063f2fde38b1461018d57600080fd5b806386d1a69f146101395780638da5cb5b1461014157806390b8037c1461015257600080fd5b80634313b9e5116100b25780634313b9e5146101145780635b94008114610129578063715018a61461013157600080fd5b806307da0603146100ce57806311e96216146100f3575b600080fd5b6100d66101a0565b6040516001600160a01b0390911681526020015b60405180910390f35b610106610101366004610fd9565b610229565b6040519081526020016100ea565b61012761012236600461106c565b610245565b005b6101066104cf565b610127610553565b610106610567565b6000546001600160a01b03166100d6565b610127610160366004611085565b6107cb565b610106610173366004610fd9565b610d14565b610180610d2e565b6040516100ea91906110be565b61012761019b366004611142565b610e1d565b6000806101ab610d2e565b60e08101516001546040516333f0330d60e21b81526004810183905292935090916001600160a01b039091169063cfc0cc3490602401602060405180830381865afa1580156101fe573d6000803e3d6000fd5b505050506040513d601f19601f82011682018060405250810190610222919061116a565b9250505090565b60008160a001518260c0015161023f919061119d565b92915050565b61024d610ead565b6002819055600080546001805473ffffffffffffffffffffffffffffffffffffffff19166001600160a01b0390921691909117905561028a610d2e565b60e081015190915080156104775760006102a26101a0565b6040848101516060860151915163095ea7b360e01b81526001600160a01b03808516600483015260248201849052939450909283169063095ea7b3906044016020604051808303816000875af1158015610300573d6000803e3d6000fd5b505050506040513d601f19601f8201168201806040525081019061032491906111bc565b50604085810151905163cb54a10f60e01b81526001600160a01b03918216600482015260009185169063cb54a10f90602401602060405180830381865afa158015610373573d6000803e3d6000fd5b505050506040513d601f19601f82011682018060405250810190610397919061116a565b60405163095ea7b360e01b81526001600160a01b03868116600483015260001960248301529192509082169063095ea7b3906044016020604051808303816000875af11580156103eb573d6000803e3d6000fd5b505050506040513d601f19601f8201168201806040525081019061040f91906111bc565b506040516311f9fbc960e21b81526001600160a01b038481166004830152602482018490528516906347e7ef2490604401600060405180830381600087803b15801561045a57600080fd5b505af115801561046e573d6000803e3d6000fd5b50505050505050505b81602001516001600160a01b031682600001516001600160a01b03167f59b5859674e76737b621cb5ce0bc99e19c30427e4a692abd1b58c2b23b5fa997846040516104c291906110be565b60405180910390a3505050565b6000806104da610d2e565b9050806080015142116104ef57600091505090565b60c081015160a0820151608083015160009161051f9161050f90426111de565b61051991906111f5565b83610f07565b9050600060035483856060015161053691906111f5565b610540908461119d565b61054a91906111de565b95945050505050565b61055b610ead565b6105656000610f1f565b565b600080610572610d2e565b602081015190915060006105846104cf565b9050600081116105e75760405162461bcd60e51b815260206004820152602360248201527f596f7520646f6e2774206861766520616e792066756e647320746f2072656c6560448201526261736560e81b60648201526084015b60405180910390fd5b8260600151600354106106625760405162461bcd60e51b815260206004820152602760248201527f596f75206861766520616c72656164792072656c656173656420616c6c20746860448201527f652066756e64730000000000000000000000000000000000000000000000000060648201526084016105de565b60e083015180156106ef5760006106776101a0565b60408681015190516304f4b51360e51b81526001600160a01b039182166004820152602481018690528682166044820152919250821690639e96a26090606401600060405180830381600087803b1580156106d157600080fd5b505af11580156106e5573d6000803e3d6000fd5b505050505061076a565b604080850151905163a9059cbb60e01b81526001600160a01b038581166004830152602482018590529091169063a9059cbb906044016020604051808303816000875af1158015610744573d6000803e3d6000fd5b505050506040513d601f19601f8201168201806040525081019061076891906111bc565b505b816003600082825461077c9190611217565b9091555050604080516001600160a01b0385168152602081018490527fb21fb52d5749b80f3182f8c6992236b5e5576681880914484d7f4c9b062e619e910160405180910390a1509392505050565b600154600254604051633e8cf2cb60e11b81526001600160a01b0390921691637d19e596916108009160040190815260200190565b61012060405180830381865afa15801561081e573d6000803e3d6000fd5b505050506040513d601f19601f82011682018060405250810190610842919061122f565b516001600160a01b031633146108c05760405162461bcd60e51b815260206004820152602f60248201527f436170617a457363726f773a204f6e6c792073656e6465722063616e2063616c60448201527f6c20746869732066756e6374696f6e000000000000000000000000000000000060648201526084016105de565b60006108ca610d2e565b90508060e00151600014156109215760405162461bcd60e51b815260206004820152601560248201527f4e6f207969656c6420737472617465677920736574000000000000000000000060448201526064016105de565b61092a81610d14565b42101561099f5760405162461bcd60e51b815260206004820152602560248201527f436170617a457363726f773a20457363726f7720686173206e6f7420656e646560448201527f642079657400000000000000000000000000000000000000000000000000000060648201526084016105de565b60045460ff16156109fd5760405162461bcd60e51b815260206004820152602260248201527f436170617a457363726f773a205969656c6420616c726561647920636c61696d604482015261195960f21b60648201526084016105de565b80606001516003541015610a1557610a13610567565b505b6000610a1f6101a0565b9050826001600160a01b0316846001600160a01b03161415610aa9576040828101519051635767bba560e01b81526001600160a01b039182166004820152858216602482015290821690635767bba590604401600060405180830381600087803b158015610a8c57600080fd5b505af1158015610aa0573d6000803e3d6000fd5b50505050610cb3565b6040828101519051635767bba560e01b81526001600160a01b03918216600482015230602482015290821690635767bba590604401600060405180830381600087803b158015610af857600080fd5b505af1158015610b0c573d6000803e3d6000fd5b5050505060408281015190516370a0823160e01b81523060048201526000916001600160a01b0316906370a0823190602401602060405180830381865afa158015610b5b573d6000803e3d6000fd5b505050506040513d601f19601f82011682018060405250810190610b7f91906112b7565b90506000610b8e6002836111f5565b604080860151905163a9059cbb60e01b81526001600160a01b0389811660048301526024820184905292935091169063a9059cbb906044016020604051808303816000875af1158015610be5573d6000803e3d6000fd5b505050506040513d601f19601f82011682018060405250810190610c0991906111bc565b5060408401516001600160a01b031663a9059cbb86610c2884866111de565b6040517fffffffff0000000000000000000000000000000000000000000000000000000060e085901b1681526001600160a01b03909216600483015260248201526044016020604051808303816000875af1158015610c8b573d6000803e3d6000fd5b505050506040513d601f19601f82011682018060405250810190610caf91906111bc565b5050505b6004805460ff19166001179055604080516001600160a01b0386811682528516602082015260009181018290527f62f6db630d0f368769015f2386526893a6af9401da723c9904b3aa8800d55c729060600160405180910390a15050505050565b6000610d1f82610229565b826080015161023f9190611217565b610da160405180610120016040528060006001600160a01b0316815260200160006001600160a01b0316815260200160006001600160a01b03168152602001600081526020016000815260200160008152602001600081526020016000815260200160006001600160a01b031681525090565b600154600254604051633e8cf2cb60e11b81526001600160a01b0390921691637d19e59691610dd69160040190815260200190565b61012060405180830381865afa158015610df4573d6000803e3d6000fd5b505050506040513d601f19601f82011682018060405250810190610e18919061122f565b905090565b610e25610ead565b6001600160a01b038116610ea15760405162461bcd60e51b815260206004820152602660248201527f4f776e61626c653a206e6577206f776e657220697320746865207a65726f206160448201527f646472657373000000000000000000000000000000000000000000000000000060648201526084016105de565b610eaa81610f1f565b50565b6000546001600160a01b031633146105655760405162461bcd60e51b815260206004820181905260248201527f4f776e61626c653a2063616c6c6572206973206e6f7420746865206f776e657260448201526064016105de565b6000818310610f165781610f18565b825b9392505050565b600080546001600160a01b0383811673ffffffffffffffffffffffffffffffffffffffff19831681178455604051919092169283917f8be0079c531659141344cd1fd0a4f28419497f9722a3daafe3b4186f6b6457e09190a35050565b604051610120810167ffffffffffffffff81118282101715610fae57634e487b7160e01b600052604160045260246000fd5b60405290565b6001600160a01b0381168114610eaa57600080fd5b8035610fd481610fb4565b919050565b60006101208284031215610fec57600080fd5b610ff4610f7c565b610ffd83610fc9565b815261100b60208401610fc9565b602082015261101c60408401610fc9565b6040820152606083013560608201526080830135608082015260a083013560a082015260c083013560c082015260e083013560e0820152610100611061818501610fc9565b908201529392505050565b60006020828403121561107e57600080fd5b5035919050565b6000806040838503121561109857600080fd5b82356110a381610fb4565b915060208301356110b381610fb4565b809150509250929050565b81516001600160a01b0390811682526020808401518216908301526040808401519182169083015261012082019050606083015160608301526080830151608083015260a083015160a083015260c083015160c083015260e083015160e08301526101008084015161113a828501826001600160a01b03169052565b505092915050565b60006020828403121561115457600080fd5b8135610f1881610fb4565b8051610fd481610fb4565b60006020828403121561117c57600080fd5b8151610f1881610fb4565b634e487b7160e01b600052601160045260246000fd5b60008160001904831182151516156111b7576111b7611187565b500290565b6000602082840312156111ce57600080fd5b81518015158114610f1857600080fd5b6000828210156111f0576111f0611187565b500390565b60008261121257634e487b7160e01b600052601260045260246000fd5b500490565b6000821982111561122a5761122a611187565b500190565b6000610120828403121561124257600080fd5b61124a610f7c565b6112538361115f565b81526112616020840161115f565b60208201526112726040840161115f565b6040820152606083015160608201526080830151608082015260a083015160a082015260c083015160c082015260e083015160e082015261010061106181850161115f565b6000602082840312156112c957600080fd5b505191905056fea164736f6c634300080a000a",
  "linkReferences": {},
  "deployedLinkReferences": {}
}