{
  "_format": "hh-sol-artifact-1",
  "contractName": "CapazEscrowFactory",
  "sourceName": "contracts/CapazEscrowFactory.sol",
  "abi": [
    {
      "inputs": [],
      "stateMutability": "nonpayable",
      "type": "constructor"
    },
    {
      "anonymous": false,
      "inputs": [
        {
          "indexed": true,
          "internalType": "address",
          "name": "owner",
          "type": "address"
        },
        {
          "indexed": true,
          "internalType": "address",
          "name": "approved",
          "type": "address"
        },
        {
          "indexed": true,
          "internalType": "uint256",
          "name": "tokenId",
          "type": "uint256"
        }
      ],
      "name": "Approval",
      "type": "event"
    },
    {
      "anonymous": false,
      "inputs": [
        {
          "indexed": true,
          "internalType": "address",
          "name": "owner",
          "type": "address"
        },
        {
          "indexed": true,
          "internalType": "address",
          "name": "operator",
          "type": "address"
        },
        {
          "indexed": false,
          "internalType": "bool",
          "name": "approved",
          "type": "bool"
        }
      ],
      "name": "ApprovalForAll",
      "type": "event"
    },
    {
      "anonymous": false,
      "inputs": [
        {
          "indexed": true,
          "internalType": "address",
          "name": "sender",
          "type": "address"
        },
        {
          "indexed": true,
          "internalType": "address",
          "name": "receiver",
          "type": "address"
        },
        {
          "components": [
            {
              "internalType": "address",
              "name": "sender",
              "type": "address"
            },
            {
              "internalType": "address",
              "name": "receiver",
              "type": "address"
            },
            {
              "internalType": "address",
              "name": "tokenAddress",
              "type": "address"
            },
            {
              "internalType": "uint256",
              "name": "totalAmount",
              "type": "uint256"
            },
            {
              "internalType": "uint256",
              "name": "startTime",
              "type": "uint256"
            },
            {
              "internalType": "uint256",
              "name": "periodDuration",
              "type": "uint256"
            },
            {
              "internalType": "uint256",
              "name": "periods",
              "type": "uint256"
            },
            {
              "internalType": "uint256",
              "name": "yieldStrategyId",
              "type": "uint256"
            },
            {
              "internalType": "address",
              "name": "escrowAddress",
              "type": "address"
            }
          ],
          "indexed": false,
          "internalType": "struct CapazCommon.Escrow",
          "name": "escrow",
          "type": "tuple"
        }
      ],
      "name": "EscrowCreated",
      "type": "event"
    },
    {
      "anonymous": false,
      "inputs": [
        {
          "indexed": true,
          "internalType": "address",
          "name": "previousOwner",
          "type": "address"
        },
        {
          "indexed": true,
          "internalType": "address",
          "name": "newOwner",
          "type": "address"
        }
      ],
      "name": "OwnershipTransferred",
      "type": "event"
    },
    {
      "anonymous": false,
      "inputs": [
        {
          "indexed": true,
          "internalType": "address",
          "name": "sender",
          "type": "address"
        },
        {
          "indexed": true,
          "internalType": "address",
          "name": "receiver",
          "type": "address"
        },
        {
          "indexed": false,
          "internalType": "uint256",
          "name": "tokenId",
          "type": "uint256"
        }
      ],
      "name": "ReceiverUpdated",
      "type": "event"
    },
    {
      "anonymous": false,
      "inputs": [
        {
          "indexed": true,
          "internalType": "address",
          "name": "from",
          "type": "address"
        },
        {
          "indexed": true,
          "internalType": "address",
          "name": "to",
          "type": "address"
        },
        {
          "indexed": true,
          "internalType": "uint256",
          "name": "tokenId",
          "type": "uint256"
        }
      ],
      "name": "Transfer",
      "type": "event"
    },
    {
      "inputs": [
        {
          "internalType": "address",
          "name": "to",
          "type": "address"
        },
        {
          "internalType": "uint256",
          "name": "tokenId",
          "type": "uint256"
        }
      ],
      "name": "approve",
      "outputs": [],
      "stateMutability": "nonpayable",
      "type": "function"
    },
    {
      "inputs": [
        {
          "internalType": "address",
          "name": "owner",
          "type": "address"
        }
      ],
      "name": "balanceOf",
      "outputs": [
        {
          "internalType": "uint256",
          "name": "",
          "type": "uint256"
        }
      ],
      "stateMutability": "view",
      "type": "function"
    },
    {
      "inputs": [
        {
          "internalType": "uint256",
          "name": "",
          "type": "uint256"
        }
      ],
      "name": "escrows",
      "outputs": [
        {
          "internalType": "address",
          "name": "sender",
          "type": "address"
        },
        {
          "internalType": "address",
          "name": "receiver",
          "type": "address"
        },
        {
          "internalType": "address",
          "name": "tokenAddress",
          "type": "address"
        },
        {
          "internalType": "uint256",
          "name": "totalAmount",
          "type": "uint256"
        },
        {
          "internalType": "uint256",
          "name": "startTime",
          "type": "uint256"
        },
        {
          "internalType": "uint256",
          "name": "periodDuration",
          "type": "uint256"
        },
        {
          "internalType": "uint256",
          "name": "periods",
          "type": "uint256"
        },
        {
          "internalType": "uint256",
          "name": "yieldStrategyId",
          "type": "uint256"
        },
        {
          "internalType": "address",
          "name": "escrowAddress",
          "type": "address"
        }
      ],
      "stateMutability": "view",
      "type": "function"
    },
    {
      "inputs": [
        {
          "internalType": "uint256",
          "name": "tokenId",
          "type": "uint256"
        }
      ],
      "name": "getApproved",
      "outputs": [
        {
          "internalType": "address",
          "name": "",
          "type": "address"
        }
      ],
      "stateMutability": "view",
      "type": "function"
    },
    {
      "inputs": [
        {
          "internalType": "uint256",
          "name": "tokenId",
          "type": "uint256"
        }
      ],
      "name": "getEscrow",
      "outputs": [
        {
          "components": [
            {
              "internalType": "address",
              "name": "sender",
              "type": "address"
            },
            {
              "internalType": "address",
              "name": "receiver",
              "type": "address"
            },
            {
              "internalType": "address",
              "name": "tokenAddress",
              "type": "address"
            },
            {
              "internalType": "uint256",
              "name": "totalAmount",
              "type": "uint256"
            },
            {
              "internalType": "uint256",
              "name": "startTime",
              "type": "uint256"
            },
            {
              "internalType": "uint256",
              "name": "periodDuration",
              "type": "uint256"
            },
            {
              "internalType": "uint256",
              "name": "periods",
              "type": "uint256"
            },
            {
              "internalType": "uint256",
              "name": "yieldStrategyId",
              "type": "uint256"
            },
            {
              "internalType": "address",
              "name": "escrowAddress",
              "type": "address"
            }
          ],
          "internalType": "struct CapazCommon.Escrow",
          "name": "",
          "type": "tuple"
        }
      ],
      "stateMutability": "view",
      "type": "function"
    },
    {
      "inputs": [
        {
          "internalType": "address",
          "name": "owner",
          "type": "address"
        },
        {
          "internalType": "address",
          "name": "operator",
          "type": "address"
        }
      ],
      "name": "isApprovedForAll",
      "outputs": [
        {
          "internalType": "bool",
          "name": "",
          "type": "bool"
        }
      ],
      "stateMutability": "view",
      "type": "function"
    },
    {
      "inputs": [
        {
          "components": [
            {
              "internalType": "address",
              "name": "sender",
              "type": "address"
            },
            {
              "internalType": "address",
              "name": "receiver",
              "type": "address"
            },
            {
              "internalType": "address",
              "name": "tokenAddress",
              "type": "address"
            },
            {
              "internalType": "uint256",
              "name": "totalAmount",
              "type": "uint256"
            },
            {
              "internalType": "uint256",
              "name": "startTime",
              "type": "uint256"
            },
            {
              "internalType": "uint256",
              "name": "periodDuration",
              "type": "uint256"
            },
            {
              "internalType": "uint256",
              "name": "periods",
              "type": "uint256"
            },
            {
              "internalType": "uint256",
              "name": "yieldStrategyId",
              "type": "uint256"
            },
            {
              "internalType": "address",
              "name": "escrowAddress",
              "type": "address"
            }
          ],
          "internalType": "struct CapazCommon.Escrow",
          "name": "_escrow",
          "type": "tuple"
        }
      ],
      "name": "mint",
      "outputs": [
        {
          "internalType": "uint256",
          "name": "",
          "type": "uint256"
        }
      ],
      "stateMutability": "nonpayable",
      "type": "function"
    },
    {
      "inputs": [],
      "name": "name",
      "outputs": [
        {
          "internalType": "string",
          "name": "",
          "type": "string"
        }
      ],
      "stateMutability": "view",
      "type": "function"
    },
    {
      "inputs": [],
      "name": "owner",
      "outputs": [
        {
          "internalType": "address",
          "name": "",
          "type": "address"
        }
      ],
      "stateMutability": "view",
      "type": "function"
    },
    {
      "inputs": [
        {
          "internalType": "uint256",
          "name": "tokenId",
          "type": "uint256"
        }
      ],
      "name": "ownerOf",
      "outputs": [
        {
          "internalType": "address",
          "name": "",
          "type": "address"
        }
      ],
      "stateMutability": "view",
      "type": "function"
    },
    {
      "inputs": [],
      "name": "renounceOwnership",
      "outputs": [],
      "stateMutability": "nonpayable",
      "type": "function"
    },
    {
      "inputs": [
        {
          "internalType": "uint256",
          "name": "",
          "type": "uint256"
        },
        {
          "internalType": "uint256",
          "name": "value",
          "type": "uint256"
        }
      ],
      "name": "royaltyInfo",
      "outputs": [
        {
          "internalType": "address",
          "name": "receiver",
          "type": "address"
        },
        {
          "internalType": "uint256",
          "name": "royaltyAmount",
          "type": "uint256"
        }
      ],
      "stateMutability": "view",
      "type": "function"
    },
    {
      "inputs": [
        {
          "internalType": "address",
          "name": "from",
          "type": "address"
        },
        {
          "internalType": "address",
          "name": "to",
          "type": "address"
        },
        {
          "internalType": "uint256",
          "name": "tokenId",
          "type": "uint256"
        }
      ],
      "name": "safeTransferFrom",
      "outputs": [],
      "stateMutability": "nonpayable",
      "type": "function"
    },
    {
      "inputs": [
        {
          "internalType": "address",
          "name": "from",
          "type": "address"
        },
        {
          "internalType": "address",
          "name": "to",
          "type": "address"
        },
        {
          "internalType": "uint256",
          "name": "tokenId",
          "type": "uint256"
        },
        {
          "internalType": "bytes",
          "name": "data",
          "type": "bytes"
        }
      ],
      "name": "safeTransferFrom",
      "outputs": [],
      "stateMutability": "nonpayable",
      "type": "function"
    },
    {
      "inputs": [
        {
          "internalType": "address",
          "name": "operator",
          "type": "address"
        },
        {
          "internalType": "bool",
          "name": "approved",
          "type": "bool"
        }
      ],
      "name": "setApprovalForAll",
      "outputs": [],
      "stateMutability": "nonpayable",
      "type": "function"
    },
    {
      "inputs": [
        {
          "internalType": "address",
          "name": "recipient",
          "type": "address"
        },
        {
          "internalType": "uint256",
          "name": "value",
          "type": "uint256"
        }
      ],
      "name": "setRoyalties",
      "outputs": [],
      "stateMutability": "nonpayable",
      "type": "function"
    },
    {
      "inputs": [
        {
          "internalType": "bytes4",
          "name": "interfaceId",
          "type": "bytes4"
        }
      ],
      "name": "supportsInterface",
      "outputs": [
        {
          "internalType": "bool",
          "name": "",
          "type": "bool"
        }
      ],
      "stateMutability": "view",
      "type": "function"
    },
    {
      "inputs": [],
      "name": "symbol",
      "outputs": [
        {
          "internalType": "string",
          "name": "",
          "type": "string"
        }
      ],
      "stateMutability": "view",
      "type": "function"
    },
    {
      "inputs": [
        {
          "internalType": "uint256",
          "name": "tokenId",
          "type": "uint256"
        }
      ],
      "name": "tokenURI",
      "outputs": [
        {
          "internalType": "string",
          "name": "",
          "type": "string"
        }
      ],
      "stateMutability": "view",
      "type": "function"
    },
    {
      "inputs": [
        {
          "internalType": "address",
          "name": "from",
          "type": "address"
        },
        {
          "internalType": "address",
          "name": "to",
          "type": "address"
        },
        {
          "internalType": "uint256",
          "name": "tokenId",
          "type": "uint256"
        }
      ],
      "name": "transferFrom",
      "outputs": [],
      "stateMutability": "nonpayable",
      "type": "function"
    },
    {
      "inputs": [
        {
          "internalType": "address",
          "name": "newOwner",
          "type": "address"
        }
      ],
      "name": "transferOwnership",
      "outputs": [],
      "stateMutability": "nonpayable",
      "type": "function"
    }
  ],
  "bytecode": "0x60806040523480156200001157600080fd5b50604080518082018252601381527f436170617a20457363726f7720546f6b656e730000000000000000000000000060208083019182528351808501909452600384526210d15560ea1b908401528151919291620000729160009162000228565b5080516200008890600190602084019062000228565b505050620000a56200009f620000b860201b60201c565b620000bc565b620000b23360326200010e565b6200030b565b3390565b600780546001600160a01b038381166001600160a01b0319831681179093556040519116919082907f8be0079c531659141344cd1fd0a4f28419497f9722a3daafe3b4186f6b6457e090600090a35050565b6200011862000128565b6200012482826200018a565b5050565b6007546001600160a01b03163314620001885760405162461bcd60e51b815260206004820181905260248201527f4f776e61626c653a2063616c6c6572206973206e6f7420746865206f776e657260448201526064015b60405180910390fd5b565b612710811115620001de5760405162461bcd60e51b815260206004820152601a60248201527f45524332393831526f79616c746965733a20546f6f206869676800000000000060448201526064016200017f565b604080518082019091526001600160a01b0390921680835262ffffff909116602090920182905260068054600160a01b9093026001600160b81b0319909316909117919091179055565b8280546200023690620002ce565b90600052602060002090601f0160209004810192826200025a5760008555620002a5565b82601f106200027557805160ff1916838001178555620002a5565b82800160010185558215620002a5579182015b82811115620002a557825182559160200191906001019062000288565b50620002b3929150620002b7565b5090565b5b80821115620002b35760008155600101620002b8565b600181811c90821680620002e357607f821691505b602082108114156200030557634e487b7160e01b600052602260045260246000fd5b50919050565b613581806200031b6000396000f3fe608060405234801561001057600080fd5b50600436106101775760003560e01c806370a08231116100d857806395d89b411161008c578063c87b56dd11610066578063c87b56dd146103cd578063e985e9c5146103e0578063f2fde38b1461041c57600080fd5b806395d89b411461039f578063a22cb465146103a7578063b88d4fde146103ba57600080fd5b80637d19e596116100bd5780637d19e5961461035b5780638c7ea24b1461037b5780638da5cb5b1461038e57600080fd5b806370a0823114610340578063715018a61461035357600080fd5b806323b872dd1161012f5780633dc879f6116101145780633dc879f6146102f957806342842e0e1461031a5780636352211e1461032d57600080fd5b806323b872dd146102b45780632a55205a146102c757600080fd5b806306fdde031161016057806306fdde031461025f578063081812fc14610274578063095ea7b31461029f57600080fd5b8063012f52ee1461017c57806301ffc9a71461023c575b600080fd5b6101e361018a366004611c25565b60086020819052600091825260409091208054600182015460028301546003840154600485015460058601546006870154600788015497909801546001600160a01b039687169895871697948716969395929491931689565b604080516001600160a01b039a8b168152988a1660208a0152968916968801969096526060870194909452608086019290925260a085015260c084015260e0830152909116610100820152610120015b60405180910390f35b61024f61024a366004611c54565b61042f565b6040519015158152602001610233565b610267610440565b6040516102339190611cd0565b610287610282366004611c25565b6104d2565b6040516001600160a01b039091168152602001610233565b6102b26102ad366004611cff565b6104f9565b005b6102b26102c2366004611d29565b610614565b6102da6102d5366004611d65565b61068b565b604080516001600160a01b039093168352602083019190915201610233565b61030c610307366004611df8565b6106e0565b604051908152602001610233565b6102b2610328366004611d29565b610b04565b61028761033b366004611c25565b610b0f565b61030c61034e366004611e8b565b610b74565b6102b2610c0e565b61036e610369366004611c25565b610c22565b6040516102339190611ea6565b6102b2610389366004611cff565b610d1c565b6007546001600160a01b0316610287565b610267610d32565b6102b26103b5366004611f38565b610d41565b6102b26103c8366004611f97565b610d4c565b6102676103db366004611c25565b610dcb565b61024f6103ee366004612042565b6001600160a01b03918216600090815260056020908152604080832093909416825291909152205460ff1690565b6102b261042a366004611e8b565b610dd6565b600061043a82610e66565b92915050565b60606000805461044f90612075565b80601f016020809104026020016040519081016040528092919081815260200182805461047b90612075565b80156104c85780601f1061049d576101008083540402835291602001916104c8565b820191906000526020600020905b8154815290600101906020018083116104ab57829003601f168201915b5050505050905090565b60006104dd82610e8b565b506000908152600460205260409020546001600160a01b031690565b600061050482610b0f565b9050806001600160a01b0316836001600160a01b031614156105775760405162461bcd60e51b815260206004820152602160248201527f4552433732313a20617070726f76616c20746f2063757272656e74206f776e656044820152603960f91b60648201526084015b60405180910390fd5b336001600160a01b0382161480610593575061059381336103ee565b6106055760405162461bcd60e51b815260206004820152603e60248201527f4552433732313a20617070726f76652063616c6c6572206973206e6f7420746f60448201527f6b656e206f776e6572206e6f7220617070726f76656420666f7220616c6c0000606482015260840161056e565b61060f8383610eef565b505050565b61061f838383610f5d565b60008181526008602090815260409182902060010180546001600160a01b0319166001600160a01b038681169182179092559251848152908616917f7a26c80a260630785315cdfbf9b1875a7894d582e0c9c9d1eae8be96ba7f6dde91015b60405180910390a3505050565b604080518082019091526006546001600160a01b038116808352600160a01b90910462ffffff16602083018190529091600091612710906106cc90866120c0565b6106d691906120f5565b9150509250929050565b600081600081606001511161075d5760405162461bcd60e51b815260206004820152603660248201527f436170617a457363726f77466163746f72793a20746f74616c416d6f756e742060448201527f6d7573742062652067726561746572207468616e203000000000000000000000606482015260840161056e565b60008160a00151116107d75760405162461bcd60e51b815260206004820152603960248201527f436170617a457363726f77466163746f72793a20706572696f6444757261746960448201527f6f6e206d7573742062652067726561746572207468616e203000000000000000606482015260840161056e565b60008160c00151116108515760405162461bcd60e51b815260206004820152603060248201527f436170617a457363726f77466163746f72793a2074696d6573206d757374206260448201527f652067726561746572207468616e203000000000000000000000000000000000606482015260840161056e565b428160800151116108ca5760405162461bcd60e51b815260206004820152603f60248201527f436170617a457363726f77466163746f72793a20737461727454696d65206d7560448201527f73742062652067726561746572207468616e2063757272656e742074696d6500606482015260840161056e565b60006040516108d890611c18565b604051809103906000f0801580156108f4573d6000803e3d6000fd5b506040808601518651606088015192516323b872dd60e01b81526001600160a01b0391821660048201528185166024820152604481019390935292935091909116906323b872dd906064016020604051808303816000875af115801561095e573d6000803e3d6000fd5b505050506040513d601f19601f820116820180604052508101906109829190612109565b50600061098e60095490565b905061099e600980546001019055565b6001600160a01b0382811661010087018181526000848152600860208181526040928390208b5181549088166001600160a01b0319918216178255918c0151600182018054918916918416919091179055838c015160028201805491891691841691909117905560608c0151600382015560808c015160048083019190915560a08d0151600583015560c08d0151600683015560e08d01516007830155945192018054929096169116179093559151634313b9e560e01b815291820183905290634313b9e590602401600060405180830381600087803b158015610a8157600080fd5b505af1158015610a95573d6000803e3d6000fd5b50505050610aa7856020015182610fd5565b84602001516001600160a01b031685600001516001600160a01b03167f798152d185d5a5e0f617ec8b1a989fe3470809f7826515fe87f14ae332d0f27587604051610af29190611ea6565b60405180910390a39250505b50919050565b61061f838383610fef565b6000818152600260205260408120546001600160a01b03168061043a5760405162461bcd60e51b815260206004820152601860248201527f4552433732313a20696e76616c696420746f6b656e2049440000000000000000604482015260640161056e565b60006001600160a01b038216610bf25760405162461bcd60e51b815260206004820152602960248201527f4552433732313a2061646472657373207a65726f206973206e6f74206120766160448201527f6c6964206f776e65720000000000000000000000000000000000000000000000606482015260840161056e565b506001600160a01b031660009081526003602052604090205490565b610c1661100a565b610c206000611064565b565b610c9560405180610120016040528060006001600160a01b0316815260200160006001600160a01b0316815260200160006001600160a01b03168152602001600081526020016000815260200160008152602001600081526020016000815260200160006001600160a01b031681525090565b5060009081526008602081815260409283902083516101208101855281546001600160a01b039081168252600183015481169382019390935260028201548316948101949094526003810154606085015260048101546080850152600581015460a0850152600681015460c0850152600781015460e0850152909101541661010082015290565b610d2461100a565b610d2e82826110b6565b5050565b60606001805461044f90612075565b610d2e33838361116a565b610d563383611231565b610db95760405162461bcd60e51b815260206004820152602e60248201527f4552433732313a2063616c6c6572206973206e6f7420746f6b656e206f776e6560448201526d1c881b9bdc88185c1c1c9bdd995960921b606482015260840161056e565b610dc5848484846112b0565b50505050565b606061043a8261132e565b610dde61100a565b6001600160a01b038116610e5a5760405162461bcd60e51b815260206004820152602660248201527f4f776e61626c653a206e6577206f776e657220697320746865207a65726f206160448201527f6464726573730000000000000000000000000000000000000000000000000000606482015260840161056e565b610e6381611064565b50565b60006001600160e01b0319821663152a902d60e11b148061043a575061043a82611472565b6000818152600260205260409020546001600160a01b0316610e635760405162461bcd60e51b815260206004820152601860248201527f4552433732313a20696e76616c696420746f6b656e2049440000000000000000604482015260640161056e565b600081815260046020526040902080546001600160a01b0319166001600160a01b0384169081179091558190610f2482610b0f565b6001600160a01b03167f8c5be1e5ebec7d5bd14f71427d1e84f3dd0314c0f7b2291e5b200ac8c7c3b92560405160405180910390a45050565b610f673382611231565b610fca5760405162461bcd60e51b815260206004820152602e60248201527f4552433732313a2063616c6c6572206973206e6f7420746f6b656e206f776e6560448201526d1c881b9bdc88185c1c1c9bdd995960921b606482015260840161056e565b61060f8383836114c2565b610d2e828260405180602001604052806000815250611676565b61060f83838360405180602001604052806000815250610d4c565b6007546001600160a01b03163314610c205760405162461bcd60e51b815260206004820181905260248201527f4f776e61626c653a2063616c6c6572206973206e6f7420746865206f776e6572604482015260640161056e565b600780546001600160a01b038381166001600160a01b0319831681179093556040519116919082907f8be0079c531659141344cd1fd0a4f28419497f9722a3daafe3b4186f6b6457e090600090a35050565b6127108111156111085760405162461bcd60e51b815260206004820152601a60248201527f45524332393831526f79616c746965733a20546f6f2068696768000000000000604482015260640161056e565b604080518082019091526001600160a01b0390921680835262ffffff909116602090920182905260068054600160a01b9093027fffffffffffffffffff0000000000000000000000000000000000000000000000909316909117919091179055565b816001600160a01b0316836001600160a01b031614156111cc5760405162461bcd60e51b815260206004820152601960248201527f4552433732313a20617070726f766520746f2063616c6c657200000000000000604482015260640161056e565b6001600160a01b03838116600081815260056020908152604080832094871680845294825291829020805460ff191686151590811790915591519182527f17307eab39ab6107e8899845ad3d59bd9653f200f220920489ca2b5937696c31910161067e565b60008061123d83610b0f565b9050806001600160a01b0316846001600160a01b0316148061128457506001600160a01b0380821660009081526005602090815260408083209388168352929052205460ff165b806112a85750836001600160a01b031661129d846104d2565b6001600160a01b0316145b949350505050565b6112bb8484846114c2565b6112c7848484846116f4565b610dc55760405162461bcd60e51b815260206004820152603260248201527f4552433732313a207472616e7366657220746f206e6f6e20455243373231526560448201527131b2b4bb32b91034b6b83632b6b2b73a32b960711b606482015260840161056e565b6060600061133b83610c22565b9050600081604001516001600160a01b03166395d89b416040518163ffffffff1660e01b8152600401600060405180830381865afa158015611381573d6000803e3d6000fd5b505050506040513d6000823e601f3d908101601f191682016040526113a99190810190612126565b905060006113dd6113bd846060015161183d565b604051806040016040528060018152602001600160fd1b81525084611953565b90506000611409826040516020016113f591906121b9565b604051602081830303815290604052611982565b604051602001611419919061251d565b60408051601f19818403018152908290528551602087810151929450611448936113f593918791879101612562565b604051602001611458919061268a565b604051602081830303815290604052945050505050919050565b60006001600160e01b031982166380ac58cd60e01b14806114a357506001600160e01b03198216635b5e139f60e01b145b8061043a57506301ffc9a760e01b6001600160e01b031983161461043a565b826001600160a01b03166114d582610b0f565b6001600160a01b0316146115515760405162461bcd60e51b815260206004820152602560248201527f4552433732313a207472616e736665722066726f6d20696e636f72726563742060448201527f6f776e6572000000000000000000000000000000000000000000000000000000606482015260840161056e565b6001600160a01b0382166115b35760405162461bcd60e51b8152602060048201526024808201527f4552433732313a207472616e7366657220746f20746865207a65726f206164646044820152637265737360e01b606482015260840161056e565b6115be600082610eef565b6001600160a01b03831660009081526003602052604081208054600192906115e79084906126cf565b90915550506001600160a01b03821660009081526003602052604081208054600192906116159084906126e6565b909155505060008181526002602052604080822080546001600160a01b0319166001600160a01b0386811691821790925591518493918716917fddf252ad1be2c89b69c2b068fc378daa952ba7f163c4a11628f55a4df523b3ef91a4505050565b6116808383611ad6565b61168d60008484846116f4565b61060f5760405162461bcd60e51b815260206004820152603260248201527f4552433732313a207472616e7366657220746f206e6f6e20455243373231526560448201527131b2b4bb32b91034b6b83632b6b2b73a32b960711b606482015260840161056e565b60006001600160a01b0384163b1561183257604051630a85bd0160e11b81526001600160a01b0385169063150b7a02906117389033908990889088906004016126fe565b6020604051808303816000875af1925050508015611773575060408051601f3d908101601f191682019092526117709181019061273a565b60015b611818573d8080156117a1576040519150601f19603f3d011682016040523d82523d6000602084013e6117a6565b606091505b5080516118105760405162461bcd60e51b815260206004820152603260248201527f4552433732313a207472616e7366657220746f206e6f6e20455243373231526560448201527131b2b4bb32b91034b6b83632b6b2b73a32b960711b606482015260840161056e565b805181602001fd5b6001600160e01b031916630a85bd0160e11b1490506112a8565b506001949350505050565b6060816118615750506040805180820190915260018152600360fc1b602082015290565b8160005b811561188b578061187581612757565b91506118849050600a836120f5565b9150611865565b60008167ffffffffffffffff8111156118a6576118a6611d87565b6040519080825280601f01601f1916602001820160405280156118d0576020820181803683370190505b5090505b84156112a8576118e56001836126cf565b91506118f2600a86612772565b6118fd9060306126e6565b60f81b81838151811061191257611912612786565b60200101907effffffffffffffffffffffffffffffffffffffffffffffffffffffffffffff1916908160001a90535061194c600a866120f5565b94506118d4565b606083838360405160200161196a9392919061279c565b60405160208183030381529060405290509392505050565b60608151600014156119a257505060408051602081019091526000815290565b600060405180606001604052806040815260200161353560409139905060006003845160026119d191906126e6565b6119db91906120f5565b6119e69060046120c0565b67ffffffffffffffff8111156119fe576119fe611d87565b6040519080825280601f01601f191660200182016040528015611a28576020820181803683370190505b509050600182016020820185865187015b80821015611a94576003820191508151603f8160121c168501518453600184019350603f81600c1c168501518453600184019350603f8160061c168501518453600184019350603f8116850151845350600183019250611a39565b5050600386510660018114611ab05760028114611ac357611acb565b603d6001830353603d6002830353611acb565b603d60018303535b509195945050505050565b6001600160a01b038216611b2c5760405162461bcd60e51b815260206004820181905260248201527f4552433732313a206d696e7420746f20746865207a65726f2061646472657373604482015260640161056e565b6000818152600260205260409020546001600160a01b031615611b915760405162461bcd60e51b815260206004820152601c60248201527f4552433732313a20746f6b656e20616c7265616479206d696e74656400000000604482015260640161056e565b6001600160a01b0382166000908152600360205260408120805460019290611bba9084906126e6565b909155505060008181526002602052604080822080546001600160a01b0319166001600160a01b03861690811790915590518392907fddf252ad1be2c89b69c2b068fc378daa952ba7f163c4a11628f55a4df523b3ef908290a45050565b610d55806127e083390190565b600060208284031215611c3757600080fd5b5035919050565b6001600160e01b031981168114610e6357600080fd5b600060208284031215611c6657600080fd5b8135611c7181611c3e565b9392505050565b60005b83811015611c93578181015183820152602001611c7b565b83811115610dc55750506000910152565b60008151808452611cbc816020860160208601611c78565b601f01601f19169290920160200192915050565b602081526000611c716020830184611ca4565b80356001600160a01b0381168114611cfa57600080fd5b919050565b60008060408385031215611d1257600080fd5b611d1b83611ce3565b946020939093013593505050565b600080600060608486031215611d3e57600080fd5b611d4784611ce3565b9250611d5560208501611ce3565b9150604084013590509250925092565b60008060408385031215611d7857600080fd5b50508035926020909101359150565b634e487b7160e01b600052604160045260246000fd5b604051610120810167ffffffffffffffff81118282101715611dc157611dc1611d87565b60405290565b604051601f8201601f1916810167ffffffffffffffff81118282101715611df057611df0611d87565b604052919050565b60006101208284031215611e0b57600080fd5b611e13611d9d565b611e1c83611ce3565b8152611e2a60208401611ce3565b6020820152611e3b60408401611ce3565b6040820152606083013560608201526080830135608082015260a083013560a082015260c083013560c082015260e083013560e0820152610100611e80818501611ce3565b908201529392505050565b600060208284031215611e9d57600080fd5b611c7182611ce3565b81516001600160a01b0390811682526020808401518216908301526040808401519182169083015261012082019050606083015160608301526080830151608083015260a083015160a083015260c083015160c083015260e083015160e083015261010080840151611f22828501826001600160a01b03169052565b505092915050565b8015158114610e6357600080fd5b60008060408385031215611f4b57600080fd5b611f5483611ce3565b91506020830135611f6481611f2a565b809150509250929050565b600067ffffffffffffffff821115611f8957611f89611d87565b50601f01601f191660200190565b60008060008060808587031215611fad57600080fd5b611fb685611ce3565b9350611fc460208601611ce3565b925060408501359150606085013567ffffffffffffffff811115611fe757600080fd5b8501601f81018713611ff857600080fd5b803561200b61200682611f6f565b611dc7565b81815288602083850101111561202057600080fd5b8160208401602083013760006020838301015280935050505092959194509250565b6000806040838503121561205557600080fd5b61205e83611ce3565b915061206c60208401611ce3565b90509250929050565b600181811c9082168061208957607f821691505b60208210811415610afe57634e487b7160e01b600052602260045260246000fd5b634e487b7160e01b600052601160045260246000fd5b60008160001904831182151516156120da576120da6120aa565b500290565b634e487b7160e01b600052601260045260246000fd5b600082612104576121046120df565b500490565b60006020828403121561211b57600080fd5b8151611c7181611f2a565b60006020828403121561213857600080fd5b815167ffffffffffffffff81111561214f57600080fd5b8201601f8101841361216057600080fd5b805161216e61200682611f6f565b81815285602083850101111561218357600080fd5b612194826020830160208601611c78565b95945050505050565b600081516121af818560208601611c78565b9290920192915050565b7f3c73766720786d6c6e733d22687474703a2f2f7777772e77332e6f72672f323081527f30302f737667222076696577426f783d2230203020393030203930302220786d60208201527f6c6e733d22687474703a2f2f7777772e77332e6f72672f323030302f7376672260408201527f3e3c646566733e3c66696c7465722069643d2241223e3c6665466c6f6f64206660608201527f6c6f6f642d6f7061636974793d2230222f3e3c6665426c656e6420696e3d225360808201527f6f7572636547726170686963222f3e3c6665476175737369616e426c7572207360a08201527f7464446576696174696f6e3d22313839222f3e3c2f66696c7465723e3c2f646560c08201527f66733e3c706174682066696c6c3d22233630662220643d224d3020306839303060e08201527f7639303048307a222f3e3c672066696c7465723d2275726c28234129223e3c636101008201527f6972636c652063783d22343639222063793d223438392220723d2234323022206101208201527f66696c6c3d2223346661636637222f3e3c636972636c652063783d22333533226101408201527f2063793d223133372220723d22343230222066696c6c3d2223363066222f3e3c6101608201527f672066696c6c3d2223346661636637223e3c636972636c652063783d223730386101808201527f222063793d223230312220723d22343230222f3e3c636972636c652063783d226101a08201527f323736222063793d223538302220723d22343230222f3e3c2f673e3c636972636101c08201527f6c652063783d22363831222063793d223833352220723d22343230222066696c6101e08201527f6c3d2223363066222f3e3c636972636c652063783d22313035222063793d22316102008201527f34362220723d22343230222066696c6c3d2223346661636637222f3e3c2f673e6102208201527f3c7465787420783d2233302220793d223730222066696c6c3d2223666666223e6102408201527f436170617a20457363726f773c2f746578743e3c7465787420783d22333022206102608201527f793d22373030222066696c6c3d2223666666223e0000000000000000000000006102808201526000611c716124f461029484018561219d565b7f3c2f746578743e3c2f7376673e000000000000000000000000000000000000008152600d0190565b7f646174613a696d6167652f7376672b786d6c3b6261736536342c00000000000081526000825161255581601a850160208701611c78565b91909101601a0192915050565b7f7b2273656e646572223a22000000000000000000000000000000000000000000815260006bffffffffffffffffffffffff19808760601b16600b8401527f7b227265636569766572223a2200000000000000000000000000000000000000601f840152808660601b16602c840152507f7b22746f74616c416d6f756e74223a22000000000000000000000000000000006040830152835161260b816050850160208801611c78565b7f222c2022696d616765223a220000000000000000000000000000000000000000605091840191820152835161264881605c840160208801611c78565b7f222c20226465736372697074696f6e223a2022436170617a20457363726f7722605c9290910191820152607d60f81b607c820152607d019695505050505050565b7f646174613a6170706c69636174696f6e2f6a736f6e3b6261736536342c0000008152600082516126c281601d850160208701611c78565b91909101601d0192915050565b6000828210156126e1576126e16120aa565b500390565b600082198211156126f9576126f96120aa565b500190565b60006001600160a01b038087168352808616602084015250836040830152608060608301526127306080830184611ca4565b9695505050505050565b60006020828403121561274c57600080fd5b8151611c7181611c3e565b600060001982141561276b5761276b6120aa565b5060010190565b600082612781576127816120df565b500690565b634e487b7160e01b600052603260045260246000fd5b600084516127ae818460208901611c78565b8451908301906127c2818360208901611c78565b84519101906127d5818360208801611c78565b019594505050505056fe608060405234801561001057600080fd5b5061001a3361001f565b61006f565b600080546001600160a01b038381166001600160a01b0319831681178455604051919092169283917f8be0079c531659141344cd1fd0a4f28419497f9722a3daafe3b4186f6b6457e09190a35050565b610cd78061007e6000396000f3fe608060405234801561001057600080fd5b50600436106100be5760003560e01c80638da5cb5b116100765780639ee778241161005b5780639ee7782414610144578063a208ae3814610157578063f2fde38b1461016c57600080fd5b80638da5cb5b1461011657806390b8037c1461013157600080fd5b80635b940081116100a75780635b940081146100fe578063715018a61461010657806386d1a69f1461010e57600080fd5b806311e96216146100c35780634313b9e5146100e9575b600080fd5b6100d66100d1366004610a09565b61017f565b6040519081526020015b60405180910390f35b6100fc6100f7366004610a9c565b61019b565b005b6100d6610240565b6100fc6102a8565b6100fc6102bc565b6000546040516001600160a01b0390911681526020016100e0565b6100fc61013f366004610ab5565b610514565b6100d6610152366004610a09565b610744565b61015f61075e565b6040516100e09190610aee565b6100fc61017a366004610b72565b61084d565b60008160a001518260c001516101959190610ba5565b92915050565b6101a36108dd565b60006101ad61075e565b600283905590506101c66000546001600160a01b031690565b6001805473ffffffffffffffffffffffffffffffffffffffff19166001600160a01b0392831617905560408281015160208401518451925191939081169216907f59b5859674e76737b621cb5ce0bc99e19c30427e4a692abd1b58c2b23b5fa99790610233908690610aee565b60405180910390a3505050565b60008061024b61075e565b905060008160c00151905060006102808360a001518460800151426102709190610bc4565b61027a9190610bdb565b83610937565b90506000828460600151836102959190610ba5565b61029f9190610bdb565b95945050505050565b6102b06108dd565b6102ba600061094f565b565b600154600254604051633e8cf2cb60e11b81526001600160a01b0390921691637d19e596916102f19160040190815260200190565b61012060405180830381865afa15801561030f573d6000803e3d6000fd5b505050506040513d601f19601f820116820180604052508101906103339190610c08565b602001516001600160a01b0316336001600160a01b0316146103c25760405162461bcd60e51b815260206004820152603160248201527f436170617a457363726f773a204f6e6c792072656365697665722063616e206360448201527f616c6c20746869732066756e6374696f6e00000000000000000000000000000060648201526084015b60405180910390fd5b60006103cc61075e565b602081015190915060006103de610240565b90506000811161043c5760405162461bcd60e51b815260206004820152602360248201527f596f7520646f6e2774206861766520616e792066756e647320746f2072656c6560448201526261736560e81b60648201526084016103b9565b604080840151905163a9059cbb60e01b81526001600160a01b038481166004830152602482018490529091169063a9059cbb906044016020604051808303816000875af1158015610491573d6000803e3d6000fd5b505050506040513d601f19601f820116820180604052508101906104b59190610c90565b5080600360008282546104c89190610cb2565b9091555050604080516001600160a01b0384168152602081018390527fb21fb52d5749b80f3182f8c6992236b5e5576681880914484d7f4c9b062e619e910160405180910390a1505050565b600154600254604051633e8cf2cb60e11b81526001600160a01b0390921691637d19e596916105499160040190815260200190565b61012060405180830381865afa158015610567573d6000803e3d6000fd5b505050506040513d601f19601f8201168201806040525081019061058b9190610c08565b516001600160a01b031633146106095760405162461bcd60e51b815260206004820152602f60248201527f436170617a457363726f773a204f6e6c792073656e6465722063616e2063616c60448201527f6c20746869732066756e6374696f6e000000000000000000000000000000000060648201526084016103b9565b600061061361075e565b905061061e81610744565b4210156106935760405162461bcd60e51b815260206004820152602560248201527f436170617a457363726f773a20457363726f7720686173206e6f7420656e646560448201527f642079657400000000000000000000000000000000000000000000000000000060648201526084016103b9565b60045460ff16156106f15760405162461bcd60e51b815260206004820152602260248201527f436170617a457363726f773a205969656c6420616c726561647920636c61696d604482015261195960f21b60648201526084016103b9565b604080516001600160a01b0380861682528416602082015260009181018290527f62f6db630d0f368769015f2386526893a6af9401da723c9904b3aa8800d55c729060600160405180910390a150505050565b600061074f8261017f565b82608001516101959190610cb2565b6107d160405180610120016040528060006001600160a01b0316815260200160006001600160a01b0316815260200160006001600160a01b03168152602001600081526020016000815260200160008152602001600081526020016000815260200160006001600160a01b031681525090565b600154600254604051633e8cf2cb60e11b81526001600160a01b0390921691637d19e596916108069160040190815260200190565b61012060405180830381865afa158015610824573d6000803e3d6000fd5b505050506040513d601f19601f820116820180604052508101906108489190610c08565b905090565b6108556108dd565b6001600160a01b0381166108d15760405162461bcd60e51b815260206004820152602660248201527f4f776e61626c653a206e6577206f776e657220697320746865207a65726f206160448201527f646472657373000000000000000000000000000000000000000000000000000060648201526084016103b9565b6108da8161094f565b50565b6000546001600160a01b031633146102ba5760405162461bcd60e51b815260206004820181905260248201527f4f776e61626c653a2063616c6c6572206973206e6f7420746865206f776e657260448201526064016103b9565b60008183106109465781610948565b825b9392505050565b600080546001600160a01b0383811673ffffffffffffffffffffffffffffffffffffffff19831681178455604051919092169283917f8be0079c531659141344cd1fd0a4f28419497f9722a3daafe3b4186f6b6457e09190a35050565b604051610120810167ffffffffffffffff811182821017156109de57634e487b7160e01b600052604160045260246000fd5b60405290565b6001600160a01b03811681146108da57600080fd5b8035610a04816109e4565b919050565b60006101208284031215610a1c57600080fd5b610a246109ac565b610a2d836109f9565b8152610a3b602084016109f9565b6020820152610a4c604084016109f9565b6040820152606083013560608201526080830135608082015260a083013560a082015260c083013560c082015260e083013560e0820152610100610a918185016109f9565b908201529392505050565b600060208284031215610aae57600080fd5b5035919050565b60008060408385031215610ac857600080fd5b8235610ad3816109e4565b91506020830135610ae3816109e4565b809150509250929050565b81516001600160a01b0390811682526020808401518216908301526040808401519182169083015261012082019050606083015160608301526080830151608083015260a083015160a083015260c083015160c083015260e083015160e083015261010080840151610b6a828501826001600160a01b03169052565b505092915050565b600060208284031215610b8457600080fd5b8135610948816109e4565b634e487b7160e01b600052601160045260246000fd5b6000816000190483118215151615610bbf57610bbf610b8f565b500290565b600082821015610bd657610bd6610b8f565b500390565b600082610bf857634e487b7160e01b600052601260045260246000fd5b500490565b8051610a04816109e4565b60006101208284031215610c1b57600080fd5b610c236109ac565b610c2c83610bfd565b8152610c3a60208401610bfd565b6020820152610c4b60408401610bfd565b6040820152606083015160608201526080830151608082015260a083015160a082015260c083015160c082015260e083015160e0820152610100610a91818501610bfd565b600060208284031215610ca257600080fd5b8151801515811461094857600080fd5b60008219821115610cc557610cc5610b8f565b50019056fea164736f6c634300080a000a4142434445464748494a4b4c4d4e4f505152535455565758595a6162636465666768696a6b6c6d6e6f707172737475767778797a303132333435363738392b2fa164736f6c634300080a000a",
  "linkReferences": {},
  "deployedLinkReferences": {}
}