{
  "_format": "hh-sol-artifact-1",
  "contractName": "CapazEscrow",
  "sourceName": "contracts/CapazEscrow.sol",
  "abi": [
    {
      "anonymous": false,
      "inputs": [
        {
          "indexed": true,
          "internalType": "address",
          "name": "previousOwner",
          "type": "address"
        },
        {
          "indexed": true,
          "internalType": "address",
          "name": "newOwner",
          "type": "address"
        }
      ],
      "name": "OwnershipTransferred",
      "type": "event"
    },
    {
      "anonymous": false,
      "inputs": [
        {
          "indexed": false,
          "internalType": "address",
          "name": "receiver",
          "type": "address"
        },
        {
          "indexed": false,
          "internalType": "uint256",
          "name": "amount",
          "type": "uint256"
        }
      ],
      "name": "Released",
      "type": "event"
    },
    {
      "anonymous": false,
      "inputs": [
        {
          "indexed": true,
          "internalType": "address",
          "name": "sender",
          "type": "address"
        },
        {
          "indexed": true,
          "internalType": "address",
          "name": "receiver",
          "type": "address"
        },
        {
          "components": [
            {
              "internalType": "address",
              "name": "sender",
              "type": "address"
            },
            {
              "internalType": "address",
              "name": "receiver",
              "type": "address"
            },
            {
              "internalType": "address",
              "name": "tokenAddress",
              "type": "address"
            },
            {
              "internalType": "uint256",
              "name": "totalAmount",
              "type": "uint256"
            },
            {
              "internalType": "uint256",
              "name": "startTime",
              "type": "uint256"
            },
            {
              "internalType": "uint256",
              "name": "periodDuration",
              "type": "uint256"
            },
            {
              "internalType": "uint256",
              "name": "periods",
              "type": "uint256"
            },
            {
              "internalType": "uint256",
              "name": "yieldStrategyId",
              "type": "uint256"
            },
            {
              "internalType": "address",
              "name": "escrowAddress",
              "type": "address"
            }
          ],
          "indexed": false,
          "internalType": "struct CapazCommon.Escrow",
          "name": "escrow",
          "type": "tuple"
        }
      ],
      "name": "SetUp",
      "type": "event"
    },
    {
      "anonymous": false,
      "inputs": [
        {
          "indexed": false,
          "internalType": "address",
          "name": "user1",
          "type": "address"
        },
        {
          "indexed": false,
          "internalType": "address",
          "name": "user2",
          "type": "address"
        },
        {
          "indexed": false,
          "internalType": "uint256",
          "name": "amount",
          "type": "uint256"
        }
      ],
      "name": "YieldDistributed",
      "type": "event"
    },
    {
      "inputs": [
        {
          "internalType": "address",
          "name": "user1",
          "type": "address"
        },
        {
          "internalType": "address",
          "name": "user2",
          "type": "address"
        }
      ],
      "name": "distributeYield",
      "outputs": [],
      "stateMutability": "nonpayable",
      "type": "function"
    },
    {
      "inputs": [
        {
          "components": [
            {
              "internalType": "address",
              "name": "sender",
              "type": "address"
            },
            {
              "internalType": "address",
              "name": "receiver",
              "type": "address"
            },
            {
              "internalType": "address",
              "name": "tokenAddress",
              "type": "address"
            },
            {
              "internalType": "uint256",
              "name": "totalAmount",
              "type": "uint256"
            },
            {
              "internalType": "uint256",
              "name": "startTime",
              "type": "uint256"
            },
            {
              "internalType": "uint256",
              "name": "periodDuration",
              "type": "uint256"
            },
            {
              "internalType": "uint256",
              "name": "periods",
              "type": "uint256"
            },
            {
              "internalType": "uint256",
              "name": "yieldStrategyId",
              "type": "uint256"
            },
            {
              "internalType": "address",
              "name": "escrowAddress",
              "type": "address"
            }
          ],
          "internalType": "struct CapazCommon.Escrow",
          "name": "_escrow",
          "type": "tuple"
        }
      ],
      "name": "escrowEndTimestamp",
      "outputs": [
        {
          "internalType": "uint256",
          "name": "",
          "type": "uint256"
        }
      ],
      "stateMutability": "pure",
      "type": "function"
    },
    {
      "inputs": [
        {
          "components": [
            {
              "internalType": "address",
              "name": "sender",
              "type": "address"
            },
            {
              "internalType": "address",
              "name": "receiver",
              "type": "address"
            },
            {
              "internalType": "address",
              "name": "tokenAddress",
              "type": "address"
            },
            {
              "internalType": "uint256",
              "name": "totalAmount",
              "type": "uint256"
            },
            {
              "internalType": "uint256",
              "name": "startTime",
              "type": "uint256"
            },
            {
              "internalType": "uint256",
              "name": "periodDuration",
              "type": "uint256"
            },
            {
              "internalType": "uint256",
              "name": "periods",
              "type": "uint256"
            },
            {
              "internalType": "uint256",
              "name": "yieldStrategyId",
              "type": "uint256"
            },
            {
              "internalType": "address",
              "name": "escrowAddress",
              "type": "address"
            }
          ],
          "internalType": "struct CapazCommon.Escrow",
          "name": "_escrow",
          "type": "tuple"
        }
      ],
      "name": "escrowLenght",
      "outputs": [
        {
          "internalType": "uint256",
          "name": "",
          "type": "uint256"
        }
      ],
      "stateMutability": "pure",
      "type": "function"
    },
    {
      "inputs": [],
      "name": "getEscrow",
      "outputs": [
        {
          "components": [
            {
              "internalType": "address",
              "name": "sender",
              "type": "address"
            },
            {
              "internalType": "address",
              "name": "receiver",
              "type": "address"
            },
            {
              "internalType": "address",
              "name": "tokenAddress",
              "type": "address"
            },
            {
              "internalType": "uint256",
              "name": "totalAmount",
              "type": "uint256"
            },
            {
              "internalType": "uint256",
              "name": "startTime",
              "type": "uint256"
            },
            {
              "internalType": "uint256",
              "name": "periodDuration",
              "type": "uint256"
            },
            {
              "internalType": "uint256",
              "name": "periods",
              "type": "uint256"
            },
            {
              "internalType": "uint256",
              "name": "yieldStrategyId",
              "type": "uint256"
            },
            {
              "internalType": "address",
              "name": "escrowAddress",
              "type": "address"
            }
          ],
          "internalType": "struct CapazCommon.Escrow",
          "name": "",
          "type": "tuple"
        }
      ],
      "stateMutability": "view",
      "type": "function"
    },
    {
      "inputs": [],
      "name": "getStrategy",
      "outputs": [
        {
          "internalType": "contract IStrategy",
          "name": "",
          "type": "address"
        }
      ],
      "stateMutability": "view",
      "type": "function"
    },
    {
      "inputs": [],
      "name": "isYieldClaimed",
      "outputs": [
        {
          "internalType": "bool",
          "name": "",
          "type": "bool"
        }
      ],
      "stateMutability": "view",
      "type": "function"
    },
    {
      "inputs": [],
      "name": "owner",
      "outputs": [
        {
          "internalType": "address",
          "name": "",
          "type": "address"
        }
      ],
      "stateMutability": "view",
      "type": "function"
    },
    {
      "inputs": [],
      "name": "releasableAmount",
      "outputs": [
        {
          "internalType": "uint256",
          "name": "",
          "type": "uint256"
        }
      ],
      "stateMutability": "view",
      "type": "function"
    },
    {
      "inputs": [],
      "name": "release",
      "outputs": [
        {
          "internalType": "uint256",
          "name": "",
          "type": "uint256"
        }
      ],
      "stateMutability": "nonpayable",
      "type": "function"
    },
    {
      "inputs": [],
      "name": "renounceOwnership",
      "outputs": [],
      "stateMutability": "nonpayable",
      "type": "function"
    },
    {
      "inputs": [
        {
          "internalType": "uint256",
          "name": "_tokenId",
          "type": "uint256"
        }
      ],
      "name": "setup",
      "outputs": [],
      "stateMutability": "nonpayable",
      "type": "function"
    },
    {
      "inputs": [
        {
          "internalType": "address",
          "name": "newOwner",
          "type": "address"
        }
      ],
      "name": "transferOwnership",
      "outputs": [],
      "stateMutability": "nonpayable",
      "type": "function"
    }
  ],
  "bytecode": "0x608060405234801561001057600080fd5b5061001a3361001f565b61006f565b600080546001600160a01b038381166001600160a01b0319831681178455604051919092169283917f8be0079c531659141344cd1fd0a4f28419497f9722a3daafe3b4186f6b6457e09190a35050565b6113058061007e6000396000f3fe608060405234801561001057600080fd5b50600436106100d45760003560e01c806386d1a69f116100815780639ee778241161005b5780639ee778241461018d578063a208ae38146101a0578063f2fde38b146101b557600080fd5b806386d1a69f146101615780638da5cb5b1461016957806390b8037c1461017a57600080fd5b80634313b9e5116100b25780634313b9e51461013c5780635b94008114610151578063715018a61461015957600080fd5b806307da0603146100d957806311e96216146100fe5780633f4632d31461011f575b600080fd5b6100e16101c8565b6040516001600160a01b0390911681526020015b60405180910390f35b61011161010c366004611001565b610251565b6040519081526020016100f5565b60045461012c9060ff1681565b60405190151581526020016100f5565b61014f61014a366004611094565b61026d565b005b6101116104f7565b61014f61057b565b61011161058f565b6000546001600160a01b03166100e1565b61014f6101883660046110ad565b6107f3565b61011161019b366004611001565b610d3c565b6101a8610d56565b6040516100f591906110e6565b61014f6101c336600461116a565b610e45565b6000806101d3610d56565b60e08101516001546040516333f0330d60e21b81526004810183905292935090916001600160a01b039091169063cfc0cc3490602401602060405180830381865afa158015610226573d6000803e3d6000fd5b505050506040513d601f19601f8201168201806040525081019061024a9190611192565b9250505090565b60008160a001518260c0015161026791906111c5565b92915050565b610275610ed5565b6002819055600080546001805473ffffffffffffffffffffffffffffffffffffffff19166001600160a01b039092169190911790556102b2610d56565b60e0810151909150801561049f5760006102ca6101c8565b6040848101516060860151915163095ea7b360e01b81526001600160a01b03808516600483015260248201849052939450909283169063095ea7b3906044016020604051808303816000875af1158015610328573d6000803e3d6000fd5b505050506040513d601f19601f8201168201806040525081019061034c91906111e4565b50604085810151905163cb54a10f60e01b81526001600160a01b03918216600482015260009185169063cb54a10f90602401602060405180830381865afa15801561039b573d6000803e3d6000fd5b505050506040513d601f19601f820116820180604052508101906103bf9190611192565b60405163095ea7b360e01b81526001600160a01b03868116600483015260001960248301529192509082169063095ea7b3906044016020604051808303816000875af1158015610413573d6000803e3d6000fd5b505050506040513d601f19601f8201168201806040525081019061043791906111e4565b506040516311f9fbc960e21b81526001600160a01b038481166004830152602482018490528516906347e7ef2490604401600060405180830381600087803b15801561048257600080fd5b505af1158015610496573d6000803e3d6000fd5b50505050505050505b81602001516001600160a01b031682600001516001600160a01b03167f59b5859674e76737b621cb5ce0bc99e19c30427e4a692abd1b58c2b23b5fa997846040516104ea91906110e6565b60405180910390a3505050565b600080610502610d56565b90508060800151421161051757600091505090565b60c081015160a08201516080830151600091610547916105379042611206565b610541919061121d565b83610f2f565b9050600060035483856060015161055e919061121d565b61056890846111c5565b6105729190611206565b95945050505050565b610583610ed5565b61058d6000610f47565b565b60008061059a610d56565b602081015190915060006105ac6104f7565b90506000811161060f5760405162461bcd60e51b815260206004820152602360248201527f596f7520646f6e2774206861766520616e792066756e647320746f2072656c6560448201526261736560e81b60648201526084015b60405180910390fd5b82606001516003541061068a5760405162461bcd60e51b815260206004820152602760248201527f596f75206861766520616c72656164792072656c656173656420616c6c20746860448201527f652066756e6473000000000000000000000000000000000000000000000000006064820152608401610606565b60e0830151801561071757600061069f6101c8565b60408681015190516304f4b51360e51b81526001600160a01b039182166004820152602481018690528682166044820152919250821690639e96a26090606401600060405180830381600087803b1580156106f957600080fd5b505af115801561070d573d6000803e3d6000fd5b5050505050610792565b604080850151905163a9059cbb60e01b81526001600160a01b038581166004830152602482018590529091169063a9059cbb906044016020604051808303816000875af115801561076c573d6000803e3d6000fd5b505050506040513d601f19601f8201168201806040525081019061079091906111e4565b505b81600360008282546107a4919061123f565b9091555050604080516001600160a01b0385168152602081018490527fb21fb52d5749b80f3182f8c6992236b5e5576681880914484d7f4c9b062e619e910160405180910390a1509392505050565b600154600254604051633e8cf2cb60e11b81526001600160a01b0390921691637d19e596916108289160040190815260200190565b61012060405180830381865afa158015610846573d6000803e3d6000fd5b505050506040513d601f19601f8201168201806040525081019061086a9190611257565b516001600160a01b031633146108e85760405162461bcd60e51b815260206004820152602f60248201527f436170617a457363726f773a204f6e6c792073656e6465722063616e2063616c60448201527f6c20746869732066756e6374696f6e00000000000000000000000000000000006064820152608401610606565b60006108f2610d56565b90508060e00151600014156109495760405162461bcd60e51b815260206004820152601560248201527f4e6f207969656c642073747261746567792073657400000000000000000000006044820152606401610606565b61095281610d3c565b4210156109c75760405162461bcd60e51b815260206004820152602560248201527f436170617a457363726f773a20457363726f7720686173206e6f7420656e646560448201527f64207965740000000000000000000000000000000000000000000000000000006064820152608401610606565b60045460ff1615610a255760405162461bcd60e51b815260206004820152602260248201527f436170617a457363726f773a205969656c6420616c726561647920636c61696d604482015261195960f21b6064820152608401610606565b80606001516003541015610a3d57610a3b61058f565b505b6000610a476101c8565b9050826001600160a01b0316846001600160a01b03161415610ad1576040828101519051635767bba560e01b81526001600160a01b039182166004820152858216602482015290821690635767bba590604401600060405180830381600087803b158015610ab457600080fd5b505af1158015610ac8573d6000803e3d6000fd5b50505050610cdb565b6040828101519051635767bba560e01b81526001600160a01b03918216600482015230602482015290821690635767bba590604401600060405180830381600087803b158015610b2057600080fd5b505af1158015610b34573d6000803e3d6000fd5b5050505060408281015190516370a0823160e01b81523060048201526000916001600160a01b0316906370a0823190602401602060405180830381865afa158015610b83573d6000803e3d6000fd5b505050506040513d601f19601f82011682018060405250810190610ba791906112df565b90506000610bb660028361121d565b604080860151905163a9059cbb60e01b81526001600160a01b0389811660048301526024820184905292935091169063a9059cbb906044016020604051808303816000875af1158015610c0d573d6000803e3d6000fd5b505050506040513d601f19601f82011682018060405250810190610c3191906111e4565b5060408401516001600160a01b031663a9059cbb86610c508486611206565b6040517fffffffff0000000000000000000000000000000000000000000000000000000060e085901b1681526001600160a01b03909216600483015260248201526044016020604051808303816000875af1158015610cb3573d6000803e3d6000fd5b505050506040513d601f19601f82011682018060405250810190610cd791906111e4565b5050505b6004805460ff19166001179055604080516001600160a01b0386811682528516602082015260009181018290527f62f6db630d0f368769015f2386526893a6af9401da723c9904b3aa8800d55c729060600160405180910390a15050505050565b6000610d4782610251565b8260800151610267919061123f565b610dc960405180610120016040528060006001600160a01b0316815260200160006001600160a01b0316815260200160006001600160a01b03168152602001600081526020016000815260200160008152602001600081526020016000815260200160006001600160a01b031681525090565b600154600254604051633e8cf2cb60e11b81526001600160a01b0390921691637d19e59691610dfe9160040190815260200190565b61012060405180830381865afa158015610e1c573d6000803e3d6000fd5b505050506040513d601f19601f82011682018060405250810190610e409190611257565b905090565b610e4d610ed5565b6001600160a01b038116610ec95760405162461bcd60e51b815260206004820152602660248201527f4f776e61626c653a206e6577206f776e657220697320746865207a65726f206160448201527f64647265737300000000000000000000000000000000000000000000000000006064820152608401610606565b610ed281610f47565b50565b6000546001600160a01b0316331461058d5760405162461bcd60e51b815260206004820181905260248201527f4f776e61626c653a2063616c6c6572206973206e6f7420746865206f776e65726044820152606401610606565b6000818310610f3e5781610f40565b825b9392505050565b600080546001600160a01b0383811673ffffffffffffffffffffffffffffffffffffffff19831681178455604051919092169283917f8be0079c531659141344cd1fd0a4f28419497f9722a3daafe3b4186f6b6457e09190a35050565b604051610120810167ffffffffffffffff81118282101715610fd657634e487b7160e01b600052604160045260246000fd5b60405290565b6001600160a01b0381168114610ed257600080fd5b8035610ffc81610fdc565b919050565b6000610120828403121561101457600080fd5b61101c610fa4565b61102583610ff1565b815261103360208401610ff1565b602082015261104460408401610ff1565b6040820152606083013560608201526080830135608082015260a083013560a082015260c083013560c082015260e083013560e0820152610100611089818501610ff1565b908201529392505050565b6000602082840312156110a657600080fd5b5035919050565b600080604083850312156110c057600080fd5b82356110cb81610fdc565b915060208301356110db81610fdc565b809150509250929050565b81516001600160a01b0390811682526020808401518216908301526040808401519182169083015261012082019050606083015160608301526080830151608083015260a083015160a083015260c083015160c083015260e083015160e083015261010080840151611162828501826001600160a01b03169052565b505092915050565b60006020828403121561117c57600080fd5b8135610f4081610fdc565b8051610ffc81610fdc565b6000602082840312156111a457600080fd5b8151610f4081610fdc565b634e487b7160e01b600052601160045260246000fd5b60008160001904831182151516156111df576111df6111af565b500290565b6000602082840312156111f657600080fd5b81518015158114610f4057600080fd5b600082821015611218576112186111af565b500390565b60008261123a57634e487b7160e01b600052601260045260246000fd5b500490565b60008219821115611252576112526111af565b500190565b6000610120828403121561126a57600080fd5b611272610fa4565b61127b83611187565b815261128960208401611187565b602082015261129a60408401611187565b6040820152606083015160608201526080830151608082015260a083015160a082015260c083015160c082015260e083015160e0820152610100611089818501611187565b6000602082840312156112f157600080fd5b505191905056fea164736f6c634300080a000a",
  "linkReferences": {},
  "deployedLinkReferences": {}
}