{
  "_format": "hh-sol-artifact-1",
  "contractName": "CapazEscrowFactory",
  "sourceName": "contracts/CapazEscrowFactory.sol",
  "abi": [
    {
      "inputs": [],
      "stateMutability": "nonpayable",
      "type": "constructor"
    },
    {
      "anonymous": false,
      "inputs": [
        {
          "indexed": true,
          "internalType": "address",
          "name": "owner",
          "type": "address"
        },
        {
          "indexed": true,
          "internalType": "address",
          "name": "approved",
          "type": "address"
        },
        {
          "indexed": true,
          "internalType": "uint256",
          "name": "tokenId",
          "type": "uint256"
        }
      ],
      "name": "Approval",
      "type": "event"
    },
    {
      "anonymous": false,
      "inputs": [
        {
          "indexed": true,
          "internalType": "address",
          "name": "owner",
          "type": "address"
        },
        {
          "indexed": true,
          "internalType": "address",
          "name": "operator",
          "type": "address"
        },
        {
          "indexed": false,
          "internalType": "bool",
          "name": "approved",
          "type": "bool"
        }
      ],
      "name": "ApprovalForAll",
      "type": "event"
    },
    {
      "anonymous": false,
      "inputs": [
        {
          "indexed": true,
          "internalType": "address",
          "name": "sender",
          "type": "address"
        },
        {
          "indexed": true,
          "internalType": "address",
          "name": "receiver",
          "type": "address"
        },
        {
          "components": [
            {
              "internalType": "address",
              "name": "sender",
              "type": "address"
            },
            {
              "internalType": "address",
              "name": "receiver",
              "type": "address"
            },
            {
              "internalType": "address",
              "name": "tokenAddress",
              "type": "address"
            },
            {
              "internalType": "uint256",
              "name": "totalAmount",
              "type": "uint256"
            },
            {
              "internalType": "uint256",
              "name": "startTime",
              "type": "uint256"
            },
            {
              "internalType": "uint256",
              "name": "periodDuration",
              "type": "uint256"
            },
            {
              "internalType": "uint256",
              "name": "periods",
              "type": "uint256"
            },
            {
              "internalType": "uint256",
              "name": "yieldStrategyId",
              "type": "uint256"
            },
            {
              "internalType": "address",
              "name": "escrowAddress",
              "type": "address"
            }
          ],
          "indexed": false,
          "internalType": "struct CapazCommon.Escrow",
          "name": "escrow",
          "type": "tuple"
        }
      ],
      "name": "EscrowCreated",
      "type": "event"
    },
    {
      "anonymous": false,
      "inputs": [
        {
          "indexed": true,
          "internalType": "address",
          "name": "previousOwner",
          "type": "address"
        },
        {
          "indexed": true,
          "internalType": "address",
          "name": "newOwner",
          "type": "address"
        }
      ],
      "name": "OwnershipTransferred",
      "type": "event"
    },
    {
      "anonymous": false,
      "inputs": [
        {
          "indexed": true,
          "internalType": "address",
          "name": "sender",
          "type": "address"
        },
        {
          "indexed": true,
          "internalType": "address",
          "name": "receiver",
          "type": "address"
        },
        {
          "indexed": false,
          "internalType": "uint256",
          "name": "tokenId",
          "type": "uint256"
        }
      ],
      "name": "ReceiverUpdated",
      "type": "event"
    },
    {
      "anonymous": false,
      "inputs": [
        {
          "indexed": true,
          "internalType": "address",
          "name": "from",
          "type": "address"
        },
        {
          "indexed": true,
          "internalType": "address",
          "name": "to",
          "type": "address"
        },
        {
          "indexed": true,
          "internalType": "uint256",
          "name": "tokenId",
          "type": "uint256"
        }
      ],
      "name": "Transfer",
      "type": "event"
    },
    {
      "inputs": [
        {
          "internalType": "address",
          "name": "to",
          "type": "address"
        },
        {
          "internalType": "uint256",
          "name": "tokenId",
          "type": "uint256"
        }
      ],
      "name": "approve",
      "outputs": [],
      "stateMutability": "nonpayable",
      "type": "function"
    },
    {
      "inputs": [
        {
          "internalType": "address",
          "name": "owner",
          "type": "address"
        }
      ],
      "name": "balanceOf",
      "outputs": [
        {
          "internalType": "uint256",
          "name": "",
          "type": "uint256"
        }
      ],
      "stateMutability": "view",
      "type": "function"
    },
    {
      "inputs": [
        {
          "internalType": "uint256",
          "name": "",
          "type": "uint256"
        }
      ],
      "name": "escrows",
      "outputs": [
        {
          "internalType": "address",
          "name": "sender",
          "type": "address"
        },
        {
          "internalType": "address",
          "name": "receiver",
          "type": "address"
        },
        {
          "internalType": "address",
          "name": "tokenAddress",
          "type": "address"
        },
        {
          "internalType": "uint256",
          "name": "totalAmount",
          "type": "uint256"
        },
        {
          "internalType": "uint256",
          "name": "startTime",
          "type": "uint256"
        },
        {
          "internalType": "uint256",
          "name": "periodDuration",
          "type": "uint256"
        },
        {
          "internalType": "uint256",
          "name": "periods",
          "type": "uint256"
        },
        {
          "internalType": "uint256",
          "name": "yieldStrategyId",
          "type": "uint256"
        },
        {
          "internalType": "address",
          "name": "escrowAddress",
          "type": "address"
        }
      ],
      "stateMutability": "view",
      "type": "function"
    },
    {
      "inputs": [
        {
          "internalType": "uint256",
          "name": "tokenId",
          "type": "uint256"
        }
      ],
      "name": "getApproved",
      "outputs": [
        {
          "internalType": "address",
          "name": "",
          "type": "address"
        }
      ],
      "stateMutability": "view",
      "type": "function"
    },
    {
      "inputs": [
        {
          "internalType": "uint256",
          "name": "tokenId",
          "type": "uint256"
        }
      ],
      "name": "getEscrow",
      "outputs": [
        {
          "components": [
            {
              "internalType": "address",
              "name": "sender",
              "type": "address"
            },
            {
              "internalType": "address",
              "name": "receiver",
              "type": "address"
            },
            {
              "internalType": "address",
              "name": "tokenAddress",
              "type": "address"
            },
            {
              "internalType": "uint256",
              "name": "totalAmount",
              "type": "uint256"
            },
            {
              "internalType": "uint256",
              "name": "startTime",
              "type": "uint256"
            },
            {
              "internalType": "uint256",
              "name": "periodDuration",
              "type": "uint256"
            },
            {
              "internalType": "uint256",
              "name": "periods",
              "type": "uint256"
            },
            {
              "internalType": "uint256",
              "name": "yieldStrategyId",
              "type": "uint256"
            },
            {
              "internalType": "address",
              "name": "escrowAddress",
              "type": "address"
            }
          ],
          "internalType": "struct CapazCommon.Escrow",
          "name": "",
          "type": "tuple"
        }
      ],
      "stateMutability": "view",
      "type": "function"
    },
    {
      "inputs": [
        {
          "internalType": "uint256",
          "name": "strategyId",
          "type": "uint256"
        }
      ],
      "name": "getStrategy",
      "outputs": [
        {
          "internalType": "address",
          "name": "",
          "type": "address"
        }
      ],
      "stateMutability": "view",
      "type": "function"
    },
    {
      "inputs": [
        {
          "internalType": "address",
          "name": "owner",
          "type": "address"
        },
        {
          "internalType": "address",
          "name": "operator",
          "type": "address"
        }
      ],
      "name": "isApprovedForAll",
      "outputs": [
        {
          "internalType": "bool",
          "name": "",
          "type": "bool"
        }
      ],
      "stateMutability": "view",
      "type": "function"
    },
    {
      "inputs": [
        {
          "components": [
            {
              "internalType": "address",
              "name": "sender",
              "type": "address"
            },
            {
              "internalType": "address",
              "name": "receiver",
              "type": "address"
            },
            {
              "internalType": "address",
              "name": "tokenAddress",
              "type": "address"
            },
            {
              "internalType": "uint256",
              "name": "totalAmount",
              "type": "uint256"
            },
            {
              "internalType": "uint256",
              "name": "startTime",
              "type": "uint256"
            },
            {
              "internalType": "uint256",
              "name": "periodDuration",
              "type": "uint256"
            },
            {
              "internalType": "uint256",
              "name": "periods",
              "type": "uint256"
            },
            {
              "internalType": "uint256",
              "name": "yieldStrategyId",
              "type": "uint256"
            },
            {
              "internalType": "address",
              "name": "escrowAddress",
              "type": "address"
            }
          ],
          "internalType": "struct CapazCommon.Escrow",
          "name": "_escrow",
          "type": "tuple"
        }
      ],
      "name": "mint",
      "outputs": [
        {
          "internalType": "uint256",
          "name": "",
          "type": "uint256"
        }
      ],
      "stateMutability": "nonpayable",
      "type": "function"
    },
    {
      "inputs": [],
      "name": "name",
      "outputs": [
        {
          "internalType": "string",
          "name": "",
          "type": "string"
        }
      ],
      "stateMutability": "view",
      "type": "function"
    },
    {
      "inputs": [],
      "name": "owner",
      "outputs": [
        {
          "internalType": "address",
          "name": "",
          "type": "address"
        }
      ],
      "stateMutability": "view",
      "type": "function"
    },
    {
      "inputs": [
        {
          "internalType": "uint256",
          "name": "tokenId",
          "type": "uint256"
        }
      ],
      "name": "ownerOf",
      "outputs": [
        {
          "internalType": "address",
          "name": "",
          "type": "address"
        }
      ],
      "stateMutability": "view",
      "type": "function"
    },
    {
      "inputs": [],
      "name": "renounceOwnership",
      "outputs": [],
      "stateMutability": "nonpayable",
      "type": "function"
    },
    {
      "inputs": [
        {
          "internalType": "uint256",
          "name": "",
          "type": "uint256"
        },
        {
          "internalType": "uint256",
          "name": "value",
          "type": "uint256"
        }
      ],
      "name": "royaltyInfo",
      "outputs": [
        {
          "internalType": "address",
          "name": "receiver",
          "type": "address"
        },
        {
          "internalType": "uint256",
          "name": "royaltyAmount",
          "type": "uint256"
        }
      ],
      "stateMutability": "view",
      "type": "function"
    },
    {
      "inputs": [
        {
          "internalType": "address",
          "name": "from",
          "type": "address"
        },
        {
          "internalType": "address",
          "name": "to",
          "type": "address"
        },
        {
          "internalType": "uint256",
          "name": "tokenId",
          "type": "uint256"
        }
      ],
      "name": "safeTransferFrom",
      "outputs": [],
      "stateMutability": "nonpayable",
      "type": "function"
    },
    {
      "inputs": [
        {
          "internalType": "address",
          "name": "from",
          "type": "address"
        },
        {
          "internalType": "address",
          "name": "to",
          "type": "address"
        },
        {
          "internalType": "uint256",
          "name": "tokenId",
          "type": "uint256"
        },
        {
          "internalType": "bytes",
          "name": "data",
          "type": "bytes"
        }
      ],
      "name": "safeTransferFrom",
      "outputs": [],
      "stateMutability": "nonpayable",
      "type": "function"
    },
    {
      "inputs": [
        {
          "internalType": "address",
          "name": "operator",
          "type": "address"
        },
        {
          "internalType": "bool",
          "name": "approved",
          "type": "bool"
        }
      ],
      "name": "setApprovalForAll",
      "outputs": [],
      "stateMutability": "nonpayable",
      "type": "function"
    },
    {
      "inputs": [
        {
          "internalType": "address",
          "name": "recipient",
          "type": "address"
        },
        {
          "internalType": "uint256",
          "name": "value",
          "type": "uint256"
        }
      ],
      "name": "setRoyalties",
      "outputs": [],
      "stateMutability": "nonpayable",
      "type": "function"
    },
    {
      "inputs": [
        {
          "internalType": "uint256",
          "name": "strategyId",
          "type": "uint256"
        },
        {
          "internalType": "address",
          "name": "strategyAddress",
          "type": "address"
        }
      ],
      "name": "setStrategy",
      "outputs": [],
      "stateMutability": "nonpayable",
      "type": "function"
    },
    {
      "inputs": [
        {
          "internalType": "uint256",
          "name": "",
          "type": "uint256"
        }
      ],
      "name": "strategies",
      "outputs": [
        {
          "internalType": "address",
          "name": "",
          "type": "address"
        }
      ],
      "stateMutability": "view",
      "type": "function"
    },
    {
      "inputs": [
        {
          "internalType": "bytes4",
          "name": "interfaceId",
          "type": "bytes4"
        }
      ],
      "name": "supportsInterface",
      "outputs": [
        {
          "internalType": "bool",
          "name": "",
          "type": "bool"
        }
      ],
      "stateMutability": "view",
      "type": "function"
    },
    {
      "inputs": [],
      "name": "symbol",
      "outputs": [
        {
          "internalType": "string",
          "name": "",
          "type": "string"
        }
      ],
      "stateMutability": "view",
      "type": "function"
    },
    {
      "inputs": [
        {
          "internalType": "uint256",
          "name": "tokenId",
          "type": "uint256"
        }
      ],
      "name": "tokenURI",
      "outputs": [
        {
          "internalType": "string",
          "name": "",
          "type": "string"
        }
      ],
      "stateMutability": "view",
      "type": "function"
    },
    {
      "inputs": [
        {
          "internalType": "address",
          "name": "from",
          "type": "address"
        },
        {
          "internalType": "address",
          "name": "to",
          "type": "address"
        },
        {
          "internalType": "uint256",
          "name": "tokenId",
          "type": "uint256"
        }
      ],
      "name": "transferFrom",
      "outputs": [],
      "stateMutability": "nonpayable",
      "type": "function"
    },
    {
      "inputs": [
        {
          "internalType": "address",
          "name": "newOwner",
          "type": "address"
        }
      ],
      "name": "transferOwnership",
      "outputs": [],
      "stateMutability": "nonpayable",
      "type": "function"
    }
  ],
  "bytecode": "0x60806040523480156200001157600080fd5b50604080518082018252601381527f436170617a20457363726f7720546f6b656e730000000000000000000000000060208083019182528351808501909452600384526210d15560ea1b908401528151919291620000729160009162000228565b5080516200008890600190602084019062000228565b505050620000a56200009f620000b860201b60201c565b620000bc565b620000b23360326200010e565b6200030b565b3390565b600780546001600160a01b038381166001600160a01b0319831681179093556040519116919082907f8be0079c531659141344cd1fd0a4f28419497f9722a3daafe3b4186f6b6457e090600090a35050565b6200011862000128565b6200012482826200018a565b5050565b6007546001600160a01b03163314620001885760405162461bcd60e51b815260206004820181905260248201527f4f776e61626c653a2063616c6c6572206973206e6f7420746865206f776e657260448201526064015b60405180910390fd5b565b612710811115620001de5760405162461bcd60e51b815260206004820152601a60248201527f45524332393831526f79616c746965733a20546f6f206869676800000000000060448201526064016200017f565b604080518082019091526001600160a01b0390921680835262ffffff909116602090920182905260068054600160a01b9093026001600160b81b0319909316909117919091179055565b8280546200023690620002ce565b90600052602060002090601f0160209004810192826200025a5760008555620002a5565b82601f106200027557805160ff1916838001178555620002a5565b82800160010185558215620002a5579182015b82811115620002a557825182559160200191906001019062000288565b50620002b3929150620002b7565b5090565b5b80821115620002b35760008155600101620002b8565b600181811c90821680620002e357607f821691505b602082108114156200030557634e487b7160e01b600052602260045260246000fd5b50919050565b613d89806200031b6000396000f3fe608060405234801561001057600080fd5b50600436106101985760003560e01c80637d19e596116100e3578063c87b56dd1161008c578063e985e9c511610066578063e985e9c514610453578063f2fde38b1461048f578063faac4325146104a257600080fd5b8063c87b56dd146103ee578063cfc0cc3414610401578063d574ea3d1461042a57600080fd5b806395d89b41116100bd57806395d89b41146103c0578063a22cb465146103c8578063b88d4fde146103db57600080fd5b80637d19e5961461037c5780638c7ea24b1461039c5780638da5cb5b146103af57600080fd5b80632a55205a116101455780636352211e1161011f5780636352211e1461034e57806370a0823114610361578063715018a61461037457600080fd5b80632a55205a146102e85780633dc879f61461031a57806342842e0e1461033b57600080fd5b8063081812fc11610176578063081812fc14610295578063095ea7b3146102c057806323b872dd146102d557600080fd5b8063012f52ee1461019d57806301ffc9a71461025d57806306fdde0314610280575b600080fd5b6102046101ab366004611dfe565b60086020819052600091825260409091208054600182015460028301546003840154600485015460058601546006870154600788015497909801546001600160a01b039687169895871697948716969395929491931689565b604080516001600160a01b039a8b168152988a1660208a0152968916968801969096526060870194909452608086019290925260a085015260c084015260e0830152909116610100820152610120015b60405180910390f35b61027061026b366004611e2d565b6104b5565b6040519015158152602001610254565b6102886104c6565b6040516102549190611ea9565b6102a86102a3366004611dfe565b610558565b6040516001600160a01b039091168152602001610254565b6102d36102ce366004611ed8565b61057f565b005b6102d36102e3366004611f02565b61069a565b6102fb6102f6366004611f3e565b610711565b604080516001600160a01b039093168352602083019190915201610254565b61032d610328366004611fd1565b610766565b604051908152602001610254565b6102d3610349366004611f02565b610c32565b6102a861035c366004611dfe565b610c3d565b61032d61036f366004612064565b610ca2565b6102d3610d3c565b61038f61038a366004611dfe565b610d50565b604051610254919061207f565b6102d36103aa366004611ed8565b610e4a565b6007546001600160a01b03166102a8565b610288610e60565b6102d36103d6366004612111565b610e6f565b6102d36103e9366004612170565b610e7a565b6102886103fc366004611dfe565b610ef9565b6102a861040f366004611dfe565b6000908152600a60205260409020546001600160a01b031690565b6102a8610438366004611dfe565b600a602052600090815260409020546001600160a01b031681565b61027061046136600461221b565b6001600160a01b03918216600090815260056020908152604080832093909416825291909152205460ff1690565b6102d361049d366004612064565b610f04565b6102d36104b036600461224e565b610f94565b60006104c08261103d565b92915050565b6060600080546104d590612271565b80601f016020809104026020016040519081016040528092919081815260200182805461050190612271565b801561054e5780601f106105235761010080835404028352916020019161054e565b820191906000526020600020905b81548152906001019060200180831161053157829003601f168201915b5050505050905090565b600061056382611062565b506000908152600460205260409020546001600160a01b031690565b600061058a82610c3d565b9050806001600160a01b0316836001600160a01b031614156105fd5760405162461bcd60e51b815260206004820152602160248201527f4552433732313a20617070726f76616c20746f2063757272656e74206f776e656044820152603960f91b60648201526084015b60405180910390fd5b336001600160a01b038216148061061957506106198133610461565b61068b5760405162461bcd60e51b815260206004820152603e60248201527f4552433732313a20617070726f76652063616c6c6572206973206e6f7420746f60448201527f6b656e206f776e6572206e6f7220617070726f76656420666f7220616c6c000060648201526084016105f4565b61069583836110c6565b505050565b6106a5838383611134565b60008181526008602090815260409182902060010180546001600160a01b0319166001600160a01b038681169182179092559251848152908616917f7a26c80a260630785315cdfbf9b1875a7894d582e0c9c9d1eae8be96ba7f6dde91015b60405180910390a3505050565b604080518082019091526006546001600160a01b038116808352600160a01b90910462ffffff166020830181905290916000916127109061075290866122c2565b61075c91906122f7565b9150509250929050565b60008160008160600151116107e35760405162461bcd60e51b815260206004820152603660248201527f436170617a457363726f77466163746f72793a20746f74616c416d6f756e742060448201527f6d7573742062652067726561746572207468616e20300000000000000000000060648201526084016105f4565b60008160a001511161085d5760405162461bcd60e51b815260206004820152603960248201527f436170617a457363726f77466163746f72793a20706572696f6444757261746960448201527f6f6e206d7573742062652067726561746572207468616e20300000000000000060648201526084016105f4565b60008160c00151116108d75760405162461bcd60e51b815260206004820152603060248201527f436170617a457363726f77466163746f72793a2074696d6573206d757374206260448201527f652067726561746572207468616e20300000000000000000000000000000000060648201526084016105f4565b428160800151116109505760405162461bcd60e51b815260206004820152603f60248201527f436170617a457363726f77466163746f72793a20737461727454696d65206d7560448201527f73742062652067726561746572207468616e2063757272656e742074696d650060648201526084016105f4565b60e0810180516000908152600a602052604090205490516001600160a01b0390911690158061098757506001600160a01b03811615155b6109f95760405162461bcd60e51b815260206004820152603560248201527f436170617a457363726f77466163746f72793a207374726174656779206d757360448201527f7420626520612076616c6964207374726174656779000000000000000000000060648201526084016105f4565b6000604051610a0790611df0565b604051809103906000f080158015610a23573d6000803e3d6000fd5b506040808701518751606089015192516323b872dd60e01b81526001600160a01b0391821660048201528185166024820152604481019390935292935091909116906323b872dd906064016020604051808303816000875af1158015610a8d573d6000803e3d6000fd5b505050506040513d601f19601f82011682018060405250810190610ab1919061230b565b506000610abd60095490565b9050610acd600980546001019055565b6001600160a01b0382811661010088018181526000848152600860208181526040928390208c5181549088166001600160a01b0319918216178255918d0151600182018054918916918416919091179055838d015160028201805491891691841691909117905560608d0151600382015560808d015160048083019190915560a08e0151600583015560c08e0151600683015560e08e01516007830155945192018054929096169116179093559151634313b9e560e01b815291820183905290634313b9e590602401600060405180830381600087803b158015610bb057600080fd5b505af1158015610bc4573d6000803e3d6000fd5b50505050610bd68660200151826111ac565b85602001516001600160a01b031686600001516001600160a01b03167f798152d185d5a5e0f617ec8b1a989fe3470809f7826515fe87f14ae332d0f27588604051610c21919061207f565b60405180910390a395945050505050565b6106a58383836111c6565b6000818152600260205260408120546001600160a01b0316806104c05760405162461bcd60e51b815260206004820152601860248201527f4552433732313a20696e76616c696420746f6b656e204944000000000000000060448201526064016105f4565b60006001600160a01b038216610d205760405162461bcd60e51b815260206004820152602960248201527f4552433732313a2061646472657373207a65726f206973206e6f74206120766160448201527f6c6964206f776e6572000000000000000000000000000000000000000000000060648201526084016105f4565b506001600160a01b031660009081526003602052604090205490565b610d446111e1565b610d4e600061123b565b565b610dc360405180610120016040528060006001600160a01b0316815260200160006001600160a01b0316815260200160006001600160a01b03168152602001600081526020016000815260200160008152602001600081526020016000815260200160006001600160a01b031681525090565b5060009081526008602081815260409283902083516101208101855281546001600160a01b039081168252600183015481169382019390935260028201548316948101949094526003810154606085015260048101546080850152600581015460a0850152600681015460c0850152600781015460e0850152909101541661010082015290565b610e526111e1565b610e5c828261128d565b5050565b6060600180546104d590612271565b610e5c338383611341565b610e843383611408565b610ee75760405162461bcd60e51b815260206004820152602e60248201527f4552433732313a2063616c6c6572206973206e6f7420746f6b656e206f776e6560448201526d1c881b9bdc88185c1c1c9bdd995960921b60648201526084016105f4565b610ef384848484611487565b50505050565b60606104c082611505565b610f0c6111e1565b6001600160a01b038116610f885760405162461bcd60e51b815260206004820152602660248201527f4f776e61626c653a206e6577206f776e657220697320746865207a65726f206160448201527f646472657373000000000000000000000000000000000000000000000000000060648201526084016105f4565b610f918161123b565b50565b610f9c6111e1565b8161100f5760405162461bcd60e51b815260206004820152603360248201527f53747261746567792069642063616e6e6f7420626520302c207265736572766560448201527f6420666f72206e6f6e652073747261746567790000000000000000000000000060648201526084016105f4565b6000918252600a602052604090912080546001600160a01b0319166001600160a01b03909216919091179055565b60006001600160e01b0319821663152a902d60e11b14806104c057506104c082611649565b6000818152600260205260409020546001600160a01b0316610f915760405162461bcd60e51b815260206004820152601860248201527f4552433732313a20696e76616c696420746f6b656e204944000000000000000060448201526064016105f4565b600081815260046020526040902080546001600160a01b0319166001600160a01b03841690811790915581906110fb82610c3d565b6001600160a01b03167f8c5be1e5ebec7d5bd14f71427d1e84f3dd0314c0f7b2291e5b200ac8c7c3b92560405160405180910390a45050565b61113e3382611408565b6111a15760405162461bcd60e51b815260206004820152602e60248201527f4552433732313a2063616c6c6572206973206e6f7420746f6b656e206f776e6560448201526d1c881b9bdc88185c1c1c9bdd995960921b60648201526084016105f4565b610695838383611699565b610e5c82826040518060200160405280600081525061184d565b61069583838360405180602001604052806000815250610e7a565b6007546001600160a01b03163314610d4e5760405162461bcd60e51b815260206004820181905260248201527f4f776e61626c653a2063616c6c6572206973206e6f7420746865206f776e657260448201526064016105f4565b600780546001600160a01b038381166001600160a01b0319831681179093556040519116919082907f8be0079c531659141344cd1fd0a4f28419497f9722a3daafe3b4186f6b6457e090600090a35050565b6127108111156112df5760405162461bcd60e51b815260206004820152601a60248201527f45524332393831526f79616c746965733a20546f6f206869676800000000000060448201526064016105f4565b604080518082019091526001600160a01b0390921680835262ffffff909116602090920182905260068054600160a01b9093027fffffffffffffffffff0000000000000000000000000000000000000000000000909316909117919091179055565b816001600160a01b0316836001600160a01b031614156113a35760405162461bcd60e51b815260206004820152601960248201527f4552433732313a20617070726f766520746f2063616c6c65720000000000000060448201526064016105f4565b6001600160a01b03838116600081815260056020908152604080832094871680845294825291829020805460ff191686151590811790915591519182527f17307eab39ab6107e8899845ad3d59bd9653f200f220920489ca2b5937696c319101610704565b60008061141483610c3d565b9050806001600160a01b0316846001600160a01b0316148061145b57506001600160a01b0380821660009081526005602090815260408083209388168352929052205460ff165b8061147f5750836001600160a01b031661147484610558565b6001600160a01b0316145b949350505050565b611492848484611699565b61149e848484846118cb565b610ef35760405162461bcd60e51b815260206004820152603260248201527f4552433732313a207472616e7366657220746f206e6f6e20455243373231526560448201527131b2b4bb32b91034b6b83632b6b2b73a32b960711b60648201526084016105f4565b6060600061151283610d50565b9050600081604001516001600160a01b03166395d89b416040518163ffffffff1660e01b8152600401600060405180830381865afa158015611558573d6000803e3d6000fd5b505050506040513d6000823e601f3d908101601f191682016040526115809190810190612328565b905060006115b46115948460600151611a14565b604051806040016040528060018152602001600160fd1b81525084611b2a565b905060006115e0826040516020016115cc91906123bb565b604051602081830303815290604052611b59565b6040516020016115f0919061271f565b60408051601f1981840301815290829052855160208781015192945061161f936115cc93918791879101612764565b60405160200161162f919061288c565b604051602081830303815290604052945050505050919050565b60006001600160e01b031982166380ac58cd60e01b148061167a57506001600160e01b03198216635b5e139f60e01b145b806104c057506301ffc9a760e01b6001600160e01b03198316146104c0565b826001600160a01b03166116ac82610c3d565b6001600160a01b0316146117285760405162461bcd60e51b815260206004820152602560248201527f4552433732313a207472616e736665722066726f6d20696e636f72726563742060448201527f6f776e657200000000000000000000000000000000000000000000000000000060648201526084016105f4565b6001600160a01b03821661178a5760405162461bcd60e51b8152602060048201526024808201527f4552433732313a207472616e7366657220746f20746865207a65726f206164646044820152637265737360e01b60648201526084016105f4565b6117956000826110c6565b6001600160a01b03831660009081526003602052604081208054600192906117be9084906128d1565b90915550506001600160a01b03821660009081526003602052604081208054600192906117ec9084906128e8565b909155505060008181526002602052604080822080546001600160a01b0319166001600160a01b0386811691821790925591518493918716917fddf252ad1be2c89b69c2b068fc378daa952ba7f163c4a11628f55a4df523b3ef91a4505050565b6118578383611cae565b61186460008484846118cb565b6106955760405162461bcd60e51b815260206004820152603260248201527f4552433732313a207472616e7366657220746f206e6f6e20455243373231526560448201527131b2b4bb32b91034b6b83632b6b2b73a32b960711b60648201526084016105f4565b60006001600160a01b0384163b15611a0957604051630a85bd0160e11b81526001600160a01b0385169063150b7a029061190f903390899088908890600401612900565b6020604051808303816000875af192505050801561194a575060408051601f3d908101601f191682019092526119479181019061293c565b60015b6119ef573d808015611978576040519150601f19603f3d011682016040523d82523d6000602084013e61197d565b606091505b5080516119e75760405162461bcd60e51b815260206004820152603260248201527f4552433732313a207472616e7366657220746f206e6f6e20455243373231526560448201527131b2b4bb32b91034b6b83632b6b2b73a32b960711b60648201526084016105f4565b805181602001fd5b6001600160e01b031916630a85bd0160e11b14905061147f565b506001949350505050565b606081611a385750506040805180820190915260018152600360fc1b602082015290565b8160005b8115611a625780611a4c81612959565b9150611a5b9050600a836122f7565b9150611a3c565b60008167ffffffffffffffff811115611a7d57611a7d611f60565b6040519080825280601f01601f191660200182016040528015611aa7576020820181803683370190505b5090505b841561147f57611abc6001836128d1565b9150611ac9600a86612974565b611ad49060306128e8565b60f81b818381518110611ae957611ae9612988565b60200101907effffffffffffffffffffffffffffffffffffffffffffffffffffffffffffff1916908160001a905350611b23600a866122f7565b9450611aab565b6060838383604051602001611b419392919061299e565b60405160208183030381529060405290509392505050565b6060815160001415611b7957505060408051602081019091526000815290565b600060405180606001604052806040815260200162003d3d6040913990506000600384516002611ba991906128e8565b611bb391906122f7565b611bbe9060046122c2565b67ffffffffffffffff811115611bd657611bd6611f60565b6040519080825280601f01601f191660200182016040528015611c00576020820181803683370190505b509050600182016020820185865187015b80821015611c6c576003820191508151603f8160121c168501518453600184019350603f81600c1c168501518453600184019350603f8160061c168501518453600184019350603f8116850151845350600183019250611c11565b5050600386510660018114611c885760028114611c9b57611ca3565b603d6001830353603d6002830353611ca3565b603d60018303535b509195945050505050565b6001600160a01b038216611d045760405162461bcd60e51b815260206004820181905260248201527f4552433732313a206d696e7420746f20746865207a65726f206164647265737360448201526064016105f4565b6000818152600260205260409020546001600160a01b031615611d695760405162461bcd60e51b815260206004820152601c60248201527f4552433732313a20746f6b656e20616c7265616479206d696e7465640000000060448201526064016105f4565b6001600160a01b0382166000908152600360205260408120805460019290611d929084906128e8565b909155505060008181526002602052604080822080546001600160a01b0319166001600160a01b03861690811790915590518392907fddf252ad1be2c89b69c2b068fc378daa952ba7f163c4a11628f55a4df523b3ef908290a45050565b61135b80620029e283390190565b600060208284031215611e1057600080fd5b5035919050565b6001600160e01b031981168114610f9157600080fd5b600060208284031215611e3f57600080fd5b8135611e4a81611e17565b9392505050565b60005b83811015611e6c578181015183820152602001611e54565b83811115610ef35750506000910152565b60008151808452611e95816020860160208601611e51565b601f01601f19169290920160200192915050565b602081526000611e4a6020830184611e7d565b80356001600160a01b0381168114611ed357600080fd5b919050565b60008060408385031215611eeb57600080fd5b611ef483611ebc565b946020939093013593505050565b600080600060608486031215611f1757600080fd5b611f2084611ebc565b9250611f2e60208501611ebc565b9150604084013590509250925092565b60008060408385031215611f5157600080fd5b50508035926020909101359150565b634e487b7160e01b600052604160045260246000fd5b604051610120810167ffffffffffffffff81118282101715611f9a57611f9a611f60565b60405290565b604051601f8201601f1916810167ffffffffffffffff81118282101715611fc957611fc9611f60565b604052919050565b60006101208284031215611fe457600080fd5b611fec611f76565b611ff583611ebc565b815261200360208401611ebc565b602082015261201460408401611ebc565b6040820152606083013560608201526080830135608082015260a083013560a082015260c083013560c082015260e083013560e0820152610100612059818501611ebc565b908201529392505050565b60006020828403121561207657600080fd5b611e4a82611ebc565b81516001600160a01b0390811682526020808401518216908301526040808401519182169083015261012082019050606083015160608301526080830151608083015260a083015160a083015260c083015160c083015260e083015160e0830152610100808401516120fb828501826001600160a01b03169052565b505092915050565b8015158114610f9157600080fd5b6000806040838503121561212457600080fd5b61212d83611ebc565b9150602083013561213d81612103565b809150509250929050565b600067ffffffffffffffff82111561216257612162611f60565b50601f01601f191660200190565b6000806000806080858703121561218657600080fd5b61218f85611ebc565b935061219d60208601611ebc565b925060408501359150606085013567ffffffffffffffff8111156121c057600080fd5b8501601f810187136121d157600080fd5b80356121e46121df82612148565b611fa0565b8181528860208385010111156121f957600080fd5b8160208401602083013760006020838301015280935050505092959194509250565b6000806040838503121561222e57600080fd5b61223783611ebc565b915061224560208401611ebc565b90509250929050565b6000806040838503121561226157600080fd5b8235915061224560208401611ebc565b600181811c9082168061228557607f821691505b602082108114156122a657634e487b7160e01b600052602260045260246000fd5b50919050565b634e487b7160e01b600052601160045260246000fd5b60008160001904831182151516156122dc576122dc6122ac565b500290565b634e487b7160e01b600052601260045260246000fd5b600082612306576123066122e1565b500490565b60006020828403121561231d57600080fd5b8151611e4a81612103565b60006020828403121561233a57600080fd5b815167ffffffffffffffff81111561235157600080fd5b8201601f8101841361236257600080fd5b80516123706121df82612148565b81815285602083850101111561238557600080fd5b612396826020830160208601611e51565b95945050505050565b600081516123b1818560208601611e51565b9290920192915050565b7f3c73766720786d6c6e733d22687474703a2f2f7777772e77332e6f72672f323081527f30302f737667222076696577426f783d2230203020393030203930302220786d60208201527f6c6e733d22687474703a2f2f7777772e77332e6f72672f323030302f7376672260408201527f3e3c646566733e3c66696c7465722069643d2241223e3c6665466c6f6f64206660608201527f6c6f6f642d6f7061636974793d2230222f3e3c6665426c656e6420696e3d225360808201527f6f7572636547726170686963222f3e3c6665476175737369616e426c7572207360a08201527f7464446576696174696f6e3d22313839222f3e3c2f66696c7465723e3c2f646560c08201527f66733e3c706174682066696c6c3d22233630662220643d224d3020306839303060e08201527f7639303048307a222f3e3c672066696c7465723d2275726c28234129223e3c636101008201527f6972636c652063783d22343639222063793d223438392220723d2234323022206101208201527f66696c6c3d2223346661636637222f3e3c636972636c652063783d22333533226101408201527f2063793d223133372220723d22343230222066696c6c3d2223363066222f3e3c6101608201527f672066696c6c3d2223346661636637223e3c636972636c652063783d223730386101808201527f222063793d223230312220723d22343230222f3e3c636972636c652063783d226101a08201527f323736222063793d223538302220723d22343230222f3e3c2f673e3c636972636101c08201527f6c652063783d22363831222063793d223833352220723d22343230222066696c6101e08201527f6c3d2223363066222f3e3c636972636c652063783d22313035222063793d22316102008201527f34362220723d22343230222066696c6c3d2223346661636637222f3e3c2f673e6102208201527f3c7465787420783d2233302220793d223730222066696c6c3d2223666666223e6102408201527f436170617a20457363726f773c2f746578743e3c7465787420783d22333022206102608201527f793d22373030222066696c6c3d2223666666223e0000000000000000000000006102808201526000611e4a6126f661029484018561239f565b7f3c2f746578743e3c2f7376673e000000000000000000000000000000000000008152600d0190565b7f646174613a696d6167652f7376672b786d6c3b6261736536342c00000000000081526000825161275781601a850160208701611e51565b91909101601a0192915050565b7f7b2273656e646572223a22000000000000000000000000000000000000000000815260006bffffffffffffffffffffffff19808760601b16600b8401527f7b227265636569766572223a2200000000000000000000000000000000000000601f840152808660601b16602c840152507f7b22746f74616c416d6f756e74223a22000000000000000000000000000000006040830152835161280d816050850160208801611e51565b7f222c2022696d616765223a220000000000000000000000000000000000000000605091840191820152835161284a81605c840160208801611e51565b7f222c20226465736372697074696f6e223a2022436170617a20457363726f7722605c9290910191820152607d60f81b607c820152607d019695505050505050565b7f646174613a6170706c69636174696f6e2f6a736f6e3b6261736536342c0000008152600082516128c481601d850160208701611e51565b91909101601d0192915050565b6000828210156128e3576128e36122ac565b500390565b600082198211156128fb576128fb6122ac565b500190565b60006001600160a01b038087168352808616602084015250836040830152608060608301526129326080830184611e7d565b9695505050505050565b60006020828403121561294e57600080fd5b8151611e4a81611e17565b600060001982141561296d5761296d6122ac565b5060010190565b600082612983576129836122e1565b500690565b634e487b7160e01b600052603260045260246000fd5b600084516129b0818460208901611e51565b8451908301906129c4818360208901611e51565b84519101906129d7818360208801611e51565b019594505050505056fe608060405234801561001057600080fd5b5061001a3361001f565b61006f565b600080546001600160a01b038381166001600160a01b0319831681178455604051919092169283917f8be0079c531659141344cd1fd0a4f28419497f9722a3daafe3b4186f6b6457e09190a35050565b6112dd8061007e6000396000f3fe608060405234801561001057600080fd5b50600436106100c95760003560e01c806386d1a69f116100815780639ee778241161005b5780639ee7782414610165578063a208ae3814610178578063f2fde38b1461018d57600080fd5b806386d1a69f146101395780638da5cb5b1461014157806390b8037c1461015257600080fd5b80634313b9e5116100b25780634313b9e5146101145780635b94008114610129578063715018a61461013157600080fd5b806307da0603146100ce57806311e96216146100f3575b600080fd5b6100d66101a0565b6040516001600160a01b0390911681526020015b60405180910390f35b610106610101366004610fd9565b610229565b6040519081526020016100ea565b61012761012236600461106c565b610245565b005b6101066104cf565b610127610553565b610106610567565b6000546001600160a01b03166100d6565b610127610160366004611085565b6107cb565b610106610173366004610fd9565b610d14565b610180610d2e565b6040516100ea91906110be565b61012761019b366004611142565b610e1d565b6000806101ab610d2e565b60e08101516001546040516333f0330d60e21b81526004810183905292935090916001600160a01b039091169063cfc0cc3490602401602060405180830381865afa1580156101fe573d6000803e3d6000fd5b505050506040513d601f19601f82011682018060405250810190610222919061116a565b9250505090565b60008160a001518260c0015161023f919061119d565b92915050565b61024d610ead565b6002819055600080546001805473ffffffffffffffffffffffffffffffffffffffff19166001600160a01b0390921691909117905561028a610d2e565b60e081015190915080156104775760006102a26101a0565b6040848101516060860151915163095ea7b360e01b81526001600160a01b03808516600483015260248201849052939450909283169063095ea7b3906044016020604051808303816000875af1158015610300573d6000803e3d6000fd5b505050506040513d601f19601f8201168201806040525081019061032491906111bc565b50604085810151905163cb54a10f60e01b81526001600160a01b03918216600482015260009185169063cb54a10f90602401602060405180830381865afa158015610373573d6000803e3d6000fd5b505050506040513d601f19601f82011682018060405250810190610397919061116a565b60405163095ea7b360e01b81526001600160a01b03868116600483015260001960248301529192509082169063095ea7b3906044016020604051808303816000875af11580156103eb573d6000803e3d6000fd5b505050506040513d601f19601f8201168201806040525081019061040f91906111bc565b506040516311f9fbc960e21b81526001600160a01b038481166004830152602482018490528516906347e7ef2490604401600060405180830381600087803b15801561045a57600080fd5b505af115801561046e573d6000803e3d6000fd5b50505050505050505b81602001516001600160a01b031682600001516001600160a01b03167f59b5859674e76737b621cb5ce0bc99e19c30427e4a692abd1b58c2b23b5fa997846040516104c291906110be565b60405180910390a3505050565b6000806104da610d2e565b9050806080015142116104ef57600091505090565b60c081015160a0820151608083015160009161051f9161050f90426111de565b61051991906111f5565b83610f07565b9050600060035483856060015161053691906111f5565b610540908461119d565b61054a91906111de565b95945050505050565b61055b610ead565b6105656000610f1f565b565b600080610572610d2e565b602081015190915060006105846104cf565b9050600081116105e75760405162461bcd60e51b815260206004820152602360248201527f596f7520646f6e2774206861766520616e792066756e647320746f2072656c6560448201526261736560e81b60648201526084015b60405180910390fd5b8260600151600354106106625760405162461bcd60e51b815260206004820152602760248201527f596f75206861766520616c72656164792072656c656173656420616c6c20746860448201527f652066756e64730000000000000000000000000000000000000000000000000060648201526084016105de565b60e083015180156106ef5760006106776101a0565b60408681015190516304f4b51360e51b81526001600160a01b039182166004820152602481018690528682166044820152919250821690639e96a26090606401600060405180830381600087803b1580156106d157600080fd5b505af11580156106e5573d6000803e3d6000fd5b505050505061076a565b604080850151905163a9059cbb60e01b81526001600160a01b038581166004830152602482018590529091169063a9059cbb906044016020604051808303816000875af1158015610744573d6000803e3d6000fd5b505050506040513d601f19601f8201168201806040525081019061076891906111bc565b505b816003600082825461077c9190611217565b9091555050604080516001600160a01b0385168152602081018490527fb21fb52d5749b80f3182f8c6992236b5e5576681880914484d7f4c9b062e619e910160405180910390a1509392505050565b600154600254604051633e8cf2cb60e11b81526001600160a01b0390921691637d19e596916108009160040190815260200190565b61012060405180830381865afa15801561081e573d6000803e3d6000fd5b505050506040513d601f19601f82011682018060405250810190610842919061122f565b516001600160a01b031633146108c05760405162461bcd60e51b815260206004820152602f60248201527f436170617a457363726f773a204f6e6c792073656e6465722063616e2063616c60448201527f6c20746869732066756e6374696f6e000000000000000000000000000000000060648201526084016105de565b60006108ca610d2e565b90508060e00151600014156109215760405162461bcd60e51b815260206004820152601560248201527f4e6f207969656c6420737472617465677920736574000000000000000000000060448201526064016105de565b61092a81610d14565b42101561099f5760405162461bcd60e51b815260206004820152602560248201527f436170617a457363726f773a20457363726f7720686173206e6f7420656e646560448201527f642079657400000000000000000000000000000000000000000000000000000060648201526084016105de565b60045460ff16156109fd5760405162461bcd60e51b815260206004820152602260248201527f436170617a457363726f773a205969656c6420616c726561647920636c61696d604482015261195960f21b60648201526084016105de565b80606001516003541015610a1557610a13610567565b505b6000610a1f6101a0565b9050826001600160a01b0316846001600160a01b03161415610aa9576040828101519051635767bba560e01b81526001600160a01b039182166004820152858216602482015290821690635767bba590604401600060405180830381600087803b158015610a8c57600080fd5b505af1158015610aa0573d6000803e3d6000fd5b50505050610cb3565b6040828101519051635767bba560e01b81526001600160a01b03918216600482015230602482015290821690635767bba590604401600060405180830381600087803b158015610af857600080fd5b505af1158015610b0c573d6000803e3d6000fd5b5050505060408281015190516370a0823160e01b81523060048201526000916001600160a01b0316906370a0823190602401602060405180830381865afa158015610b5b573d6000803e3d6000fd5b505050506040513d601f19601f82011682018060405250810190610b7f91906112b7565b90506000610b8e6002836111f5565b604080860151905163a9059cbb60e01b81526001600160a01b0389811660048301526024820184905292935091169063a9059cbb906044016020604051808303816000875af1158015610be5573d6000803e3d6000fd5b505050506040513d601f19601f82011682018060405250810190610c0991906111bc565b5060408401516001600160a01b031663a9059cbb86610c2884866111de565b6040517fffffffff0000000000000000000000000000000000000000000000000000000060e085901b1681526001600160a01b03909216600483015260248201526044016020604051808303816000875af1158015610c8b573d6000803e3d6000fd5b505050506040513d601f19601f82011682018060405250810190610caf91906111bc565b5050505b6004805460ff19166001179055604080516001600160a01b0386811682528516602082015260009181018290527f62f6db630d0f368769015f2386526893a6af9401da723c9904b3aa8800d55c729060600160405180910390a15050505050565b6000610d1f82610229565b826080015161023f9190611217565b610da160405180610120016040528060006001600160a01b0316815260200160006001600160a01b0316815260200160006001600160a01b03168152602001600081526020016000815260200160008152602001600081526020016000815260200160006001600160a01b031681525090565b600154600254604051633e8cf2cb60e11b81526001600160a01b0390921691637d19e59691610dd69160040190815260200190565b61012060405180830381865afa158015610df4573d6000803e3d6000fd5b505050506040513d601f19601f82011682018060405250810190610e18919061122f565b905090565b610e25610ead565b6001600160a01b038116610ea15760405162461bcd60e51b815260206004820152602660248201527f4f776e61626c653a206e6577206f776e657220697320746865207a65726f206160448201527f646472657373000000000000000000000000000000000000000000000000000060648201526084016105de565b610eaa81610f1f565b50565b6000546001600160a01b031633146105655760405162461bcd60e51b815260206004820181905260248201527f4f776e61626c653a2063616c6c6572206973206e6f7420746865206f776e657260448201526064016105de565b6000818310610f165781610f18565b825b9392505050565b600080546001600160a01b0383811673ffffffffffffffffffffffffffffffffffffffff19831681178455604051919092169283917f8be0079c531659141344cd1fd0a4f28419497f9722a3daafe3b4186f6b6457e09190a35050565b604051610120810167ffffffffffffffff81118282101715610fae57634e487b7160e01b600052604160045260246000fd5b60405290565b6001600160a01b0381168114610eaa57600080fd5b8035610fd481610fb4565b919050565b60006101208284031215610fec57600080fd5b610ff4610f7c565b610ffd83610fc9565b815261100b60208401610fc9565b602082015261101c60408401610fc9565b6040820152606083013560608201526080830135608082015260a083013560a082015260c083013560c082015260e083013560e0820152610100611061818501610fc9565b908201529392505050565b60006020828403121561107e57600080fd5b5035919050565b6000806040838503121561109857600080fd5b82356110a381610fb4565b915060208301356110b381610fb4565b809150509250929050565b81516001600160a01b0390811682526020808401518216908301526040808401519182169083015261012082019050606083015160608301526080830151608083015260a083015160a083015260c083015160c083015260e083015160e08301526101008084015161113a828501826001600160a01b03169052565b505092915050565b60006020828403121561115457600080fd5b8135610f1881610fb4565b8051610fd481610fb4565b60006020828403121561117c57600080fd5b8151610f1881610fb4565b634e487b7160e01b600052601160045260246000fd5b60008160001904831182151516156111b7576111b7611187565b500290565b6000602082840312156111ce57600080fd5b81518015158114610f1857600080fd5b6000828210156111f0576111f0611187565b500390565b60008261121257634e487b7160e01b600052601260045260246000fd5b500490565b6000821982111561122a5761122a611187565b500190565b6000610120828403121561124257600080fd5b61124a610f7c565b6112538361115f565b81526112616020840161115f565b60208201526112726040840161115f565b6040820152606083015160608201526080830151608082015260a083015160a082015260c083015160c082015260e083015160e082015261010061106181850161115f565b6000602082840312156112c957600080fd5b505191905056fea164736f6c634300080a000a4142434445464748494a4b4c4d4e4f505152535455565758595a6162636465666768696a6b6c6d6e6f707172737475767778797a303132333435363738392b2fa164736f6c634300080a000a",
  "linkReferences": {},
  "deployedLinkReferences": {}
}